{
	"contracts/ch03/BallotV1.sol": {
		"BallotV1": {
			"abi": [
				{
					"inputs": [],
					"name": "state",
					"outputs": [
						{
							"internalType": "enum BallotV1.Phase",
							"name": "",
							"type": "uint8"
						}
					],
					"stateMutability": "view",
					"type": "function"
				}
			],
			"devdoc": {
				"kind": "dev",
				"methods": {},
				"version": 1
			},
			"evm": {
				"assembly": "    /* \"contracts/ch03/BallotV1.sol\":57:402  contract BallotV1{\r... */\n  mstore(0x40, 0x80)\n    /* \"contracts/ch03/BallotV1.sol\":386:396  Phase.Done */\n  0x03\n    /* \"contracts/ch03/BallotV1.sol\":365:396  Phase public state = Phase.Done */\n  dup1\n  exp(0x0100, 0x00)\n  dup2\n  sload\n  dup2\n  0xff\n  mul\n  not\n  and\n  swap1\n  dup4\n  0x03\n  dup2\n  gt\n  iszero\n  tag_1\n  jumpi\n  tag_2\n  tag_3\n  jump\t// in\ntag_2:\ntag_1:\n  mul\n  or\n  swap1\n  sstore\n  pop\n    /* \"contracts/ch03/BallotV1.sol\":57:402  contract BallotV1{\r... */\n  callvalue\n  dup1\n  iszero\n  tag_4\n  jumpi\n  0x00\n  dup1\n  revert\ntag_4:\n  pop\n  jump(tag_5)\n    /* \"#utility.yul\":7:187   */\ntag_3:\n    /* \"#utility.yul\":55:132   */\n  0x4e487b7100000000000000000000000000000000000000000000000000000000\n    /* \"#utility.yul\":52:53   */\n  0x00\n    /* \"#utility.yul\":45:133   */\n  mstore\n    /* \"#utility.yul\":152:156   */\n  0x21\n    /* \"#utility.yul\":149:150   */\n  0x04\n    /* \"#utility.yul\":142:157   */\n  mstore\n    /* \"#utility.yul\":176:180   */\n  0x24\n    /* \"#utility.yul\":173:174   */\n  0x00\n    /* \"#utility.yul\":166:181   */\n  revert\n    /* \"contracts/ch03/BallotV1.sol\":57:402  contract BallotV1{\r... */\ntag_5:\n  dataSize(sub_0)\n  dup1\n  dataOffset(sub_0)\n  0x00\n  codecopy\n  0x00\n  return\nstop\n\nsub_0: assembly {\n        /* \"contracts/ch03/BallotV1.sol\":57:402  contract BallotV1{\r... */\n      mstore(0x40, 0x80)\n      callvalue\n      dup1\n      iszero\n      tag_1\n      jumpi\n      0x00\n      dup1\n      revert\n    tag_1:\n      pop\n      jumpi(tag_2, lt(calldatasize, 0x04))\n      shr(0xe0, calldataload(0x00))\n      dup1\n      0xc19d93fb\n      eq\n      tag_3\n      jumpi\n    tag_2:\n      0x00\n      dup1\n      revert\n        /* \"contracts/ch03/BallotV1.sol\":365:396  Phase public state = Phase.Done */\n    tag_3:\n      tag_4\n      tag_5\n      jump\t// in\n    tag_4:\n      mload(0x40)\n      tag_6\n      swap2\n      swap1\n      tag_7\n      jump\t// in\n    tag_6:\n      mload(0x40)\n      dup1\n      swap2\n      sub\n      swap1\n      return\n    tag_5:\n      0x03\n      0x00\n      swap1\n      sload\n      swap1\n      0x0100\n      exp\n      swap1\n      div\n      0xff\n      and\n      dup2\n      jump\t// out\n        /* \"#utility.yul\":7:150   */\n    tag_9:\n        /* \"#utility.yul\":100:143   */\n      tag_11\n        /* \"#utility.yul\":137:142   */\n      dup2\n        /* \"#utility.yul\":100:143   */\n      tag_12\n      jump\t// in\n    tag_11:\n        /* \"#utility.yul\":95:98   */\n      dup3\n        /* \"#utility.yul\":88:144   */\n      mstore\n        /* \"#utility.yul\":7:150   */\n      pop\n      pop\n      jump\t// out\n        /* \"#utility.yul\":156:390   */\n    tag_7:\n        /* \"#utility.yul\":255:259   */\n      0x00\n        /* \"#utility.yul\":293:295   */\n      0x20\n        /* \"#utility.yul\":282:291   */\n      dup3\n        /* \"#utility.yul\":278:296   */\n      add\n        /* \"#utility.yul\":270:296   */\n      swap1\n      pop\n        /* \"#utility.yul\":306:383   */\n      tag_14\n        /* \"#utility.yul\":380:381   */\n      0x00\n        /* \"#utility.yul\":369:378   */\n      dup4\n        /* \"#utility.yul\":365:382   */\n      add\n        /* \"#utility.yul\":356:362   */\n      dup5\n        /* \"#utility.yul\":306:383   */\n      tag_9\n      jump\t// in\n    tag_14:\n        /* \"#utility.yul\":156:390   */\n      swap3\n      swap2\n      pop\n      pop\n      jump\t// out\n        /* \"#utility.yul\":396:523   */\n    tag_15:\n        /* \"#utility.yul\":441:448   */\n      0x00\n        /* \"#utility.yul\":470:475   */\n      dup2\n        /* \"#utility.yul\":459:475   */\n      swap1\n      pop\n        /* \"#utility.yul\":476:517   */\n      tag_17\n        /* \"#utility.yul\":511:516   */\n      dup3\n        /* \"#utility.yul\":476:517   */\n      tag_18\n      jump\t// in\n    tag_17:\n        /* \"#utility.yul\":396:523   */\n      swap2\n      swap1\n      pop\n      jump\t// out\n        /* \"#utility.yul\":529:656   */\n    tag_12:\n        /* \"#utility.yul\":585:594   */\n      0x00\n        /* \"#utility.yul\":618:650   */\n      tag_20\n        /* \"#utility.yul\":644:649   */\n      dup3\n        /* \"#utility.yul\":618:650   */\n      tag_15\n      jump\t// in\n    tag_20:\n        /* \"#utility.yul\":605:650   */\n      swap1\n      pop\n        /* \"#utility.yul\":529:656   */\n      swap2\n      swap1\n      pop\n      jump\t// out\n        /* \"#utility.yul\":662:842   */\n    tag_21:\n        /* \"#utility.yul\":710:787   */\n      0x4e487b7100000000000000000000000000000000000000000000000000000000\n        /* \"#utility.yul\":707:708   */\n      0x00\n        /* \"#utility.yul\":700:788   */\n      mstore\n        /* \"#utility.yul\":807:811   */\n      0x21\n        /* \"#utility.yul\":804:805   */\n      0x04\n        /* \"#utility.yul\":797:812   */\n      mstore\n        /* \"#utility.yul\":831:835   */\n      0x24\n        /* \"#utility.yul\":828:829   */\n      0x00\n        /* \"#utility.yul\":821:836   */\n      revert\n        /* \"#utility.yul\":848:961   */\n    tag_18:\n        /* \"#utility.yul\":929:930   */\n      0x04\n        /* \"#utility.yul\":922:927   */\n      dup2\n        /* \"#utility.yul\":919:931   */\n      lt\n        /* \"#utility.yul\":909:955   */\n      tag_24\n      jumpi\n        /* \"#utility.yul\":935:953   */\n      tag_25\n      tag_21\n      jump\t// in\n    tag_25:\n        /* \"#utility.yul\":909:955   */\n    tag_24:\n        /* \"#utility.yul\":848:961   */\n      pop\n      jump\t// out\n\n    auxdata: 0xa2646970667358221220f40360e2cd0f6c51f322f90e5c24cad8169b36ae56d0f5aeae00d196ac7f658a64736f6c63430008070033\n}\n",
				"bytecode": {
					"linkReferences": {},
					"object": "608060405260038060006101000a81548160ff0219169083600381111561002957610028610040565b5b021790555034801561003a57600080fd5b5061006f565b7f4e487b7100000000000000000000000000000000000000000000000000000000600052602160045260246000fd5b6101178061007e6000396000f3fe6080604052348015600f57600080fd5b506004361060285760003560e01c8063c19d93fb14602d575b600080fd5b60336047565b604051603e91906067565b60405180910390f35b600360009054906101000a900460ff1681565b6061816091565b82525050565b6000602082019050607a6000830184605a565b92915050565b6000819050608c8260d0565b919050565b6000609a826080565b9050919050565b7f4e487b7100000000000000000000000000000000000000000000000000000000600052602160045260246000fd5b6004811060de5760dd60a1565b5b5056fea2646970667358221220f40360e2cd0f6c51f322f90e5c24cad8169b36ae56d0f5aeae00d196ac7f658a64736f6c63430008070033",
					"opcodes": "PUSH1 0x80 PUSH1 0x40 MSTORE PUSH1 0x3 DUP1 PUSH1 0x0 PUSH2 0x100 EXP DUP2 SLOAD DUP2 PUSH1 0xFF MUL NOT AND SWAP1 DUP4 PUSH1 0x3 DUP2 GT ISZERO PUSH2 0x29 JUMPI PUSH2 0x28 PUSH2 0x40 JUMP JUMPDEST JUMPDEST MUL OR SWAP1 SSTORE POP CALLVALUE DUP1 ISZERO PUSH2 0x3A JUMPI PUSH1 0x0 DUP1 REVERT JUMPDEST POP PUSH2 0x6F JUMP JUMPDEST PUSH32 0x4E487B7100000000000000000000000000000000000000000000000000000000 PUSH1 0x0 MSTORE PUSH1 0x21 PUSH1 0x4 MSTORE PUSH1 0x24 PUSH1 0x0 REVERT JUMPDEST PUSH2 0x117 DUP1 PUSH2 0x7E PUSH1 0x0 CODECOPY PUSH1 0x0 RETURN INVALID PUSH1 0x80 PUSH1 0x40 MSTORE CALLVALUE DUP1 ISZERO PUSH1 0xF JUMPI PUSH1 0x0 DUP1 REVERT JUMPDEST POP PUSH1 0x4 CALLDATASIZE LT PUSH1 0x28 JUMPI PUSH1 0x0 CALLDATALOAD PUSH1 0xE0 SHR DUP1 PUSH4 0xC19D93FB EQ PUSH1 0x2D JUMPI JUMPDEST PUSH1 0x0 DUP1 REVERT JUMPDEST PUSH1 0x33 PUSH1 0x47 JUMP JUMPDEST PUSH1 0x40 MLOAD PUSH1 0x3E SWAP2 SWAP1 PUSH1 0x67 JUMP JUMPDEST PUSH1 0x40 MLOAD DUP1 SWAP2 SUB SWAP1 RETURN JUMPDEST PUSH1 0x3 PUSH1 0x0 SWAP1 SLOAD SWAP1 PUSH2 0x100 EXP SWAP1 DIV PUSH1 0xFF AND DUP2 JUMP JUMPDEST PUSH1 0x61 DUP2 PUSH1 0x91 JUMP JUMPDEST DUP3 MSTORE POP POP JUMP JUMPDEST PUSH1 0x0 PUSH1 0x20 DUP3 ADD SWAP1 POP PUSH1 0x7A PUSH1 0x0 DUP4 ADD DUP5 PUSH1 0x5A JUMP JUMPDEST SWAP3 SWAP2 POP POP JUMP JUMPDEST PUSH1 0x0 DUP2 SWAP1 POP PUSH1 0x8C DUP3 PUSH1 0xD0 JUMP JUMPDEST SWAP2 SWAP1 POP JUMP JUMPDEST PUSH1 0x0 PUSH1 0x9A DUP3 PUSH1 0x80 JUMP JUMPDEST SWAP1 POP SWAP2 SWAP1 POP JUMP JUMPDEST PUSH32 0x4E487B7100000000000000000000000000000000000000000000000000000000 PUSH1 0x0 MSTORE PUSH1 0x21 PUSH1 0x4 MSTORE PUSH1 0x24 PUSH1 0x0 REVERT JUMPDEST PUSH1 0x4 DUP2 LT PUSH1 0xDE JUMPI PUSH1 0xDD PUSH1 0xA1 JUMP JUMPDEST JUMPDEST POP JUMP INVALID LOG2 PUSH5 0x6970667358 0x22 SLT KECCAK256 DELEGATECALL SUB PUSH1 0xE2 0xCD 0xF PUSH13 0x51F322F90E5C24CAD8169B36AE JUMP 0xD0 CREATE2 0xAE 0xAE STOP 0xD1 SWAP7 0xAC PUSH32 0x658A64736F6C6343000807003300000000000000000000000000000000000000 "
				},
				"gasEstimates": {
					"creation": {
						"codeDepositCost": "55800",
						"executionCost": "24404",
						"totalCost": "80204"
					},
					"external": {
						"state()": "2538"
					}
				},
				"methodIdentifiers": {
					"state()": "c19d93fb"
				}
			},
			"storageLayout": {
				"storage": [
					{
						"astId": 13,
						"contract": "contracts/ch03/BallotV1.sol:BallotV1",
						"label": "chairperson",
						"offset": 0,
						"slot": "0",
						"type": "t_address"
					},
					{
						"astId": 18,
						"contract": "contracts/ch03/BallotV1.sol:BallotV1",
						"label": "voters",
						"offset": 0,
						"slot": "1",
						"type": "t_mapping(t_address,t_struct(Voter)8_storage)"
					},
					{
						"astId": 22,
						"contract": "contracts/ch03/BallotV1.sol:BallotV1",
						"label": "proposals",
						"offset": 0,
						"slot": "2",
						"type": "t_array(t_struct(Proposal)11_storage)dyn_storage"
					},
					{
						"astId": 32,
						"contract": "contracts/ch03/BallotV1.sol:BallotV1",
						"label": "state",
						"offset": 0,
						"slot": "3",
						"type": "t_enum(Phase)27"
					}
				],
				"types": {
					"t_address": {
						"encoding": "inplace",
						"label": "address",
						"numberOfBytes": "20"
					},
					"t_array(t_struct(Proposal)11_storage)dyn_storage": {
						"base": "t_struct(Proposal)11_storage",
						"encoding": "dynamic_array",
						"label": "struct BallotV1.Proposal[]",
						"numberOfBytes": "32"
					},
					"t_bool": {
						"encoding": "inplace",
						"label": "bool",
						"numberOfBytes": "1"
					},
					"t_enum(Phase)27": {
						"encoding": "inplace",
						"label": "enum BallotV1.Phase",
						"numberOfBytes": "1"
					},
					"t_mapping(t_address,t_struct(Voter)8_storage)": {
						"encoding": "mapping",
						"key": "t_address",
						"label": "mapping(address => struct BallotV1.Voter)",
						"numberOfBytes": "32",
						"value": "t_struct(Voter)8_storage"
					},
					"t_struct(Proposal)11_storage": {
						"encoding": "inplace",
						"label": "struct BallotV1.Proposal",
						"members": [
							{
								"astId": 10,
								"contract": "contracts/ch03/BallotV1.sol:BallotV1",
								"label": "voteCount",
								"offset": 0,
								"slot": "0",
								"type": "t_uint256"
							}
						],
						"numberOfBytes": "32"
					},
					"t_struct(Voter)8_storage": {
						"encoding": "inplace",
						"label": "struct BallotV1.Voter",
						"members": [
							{
								"astId": 3,
								"contract": "contracts/ch03/BallotV1.sol:BallotV1",
								"label": "weight",
								"offset": 0,
								"slot": "0",
								"type": "t_uint256"
							},
							{
								"astId": 5,
								"contract": "contracts/ch03/BallotV1.sol:BallotV1",
								"label": "voted",
								"offset": 0,
								"slot": "1",
								"type": "t_bool"
							},
							{
								"astId": 7,
								"contract": "contracts/ch03/BallotV1.sol:BallotV1",
								"label": "vote",
								"offset": 0,
								"slot": "2",
								"type": "t_uint256"
							}
						],
						"numberOfBytes": "96"
					},
					"t_uint256": {
						"encoding": "inplace",
						"label": "uint256",
						"numberOfBytes": "32"
					}
				}
			},
			"userdoc": {
				"kind": "user",
				"methods": {},
				"version": 1
			}
		}
	}
}