{
	"contracts/ch02/Airlines.sol": {
		"Airlines": {
			"abi": [
				{
					"inputs": [],
					"stateMutability": "payable",
					"type": "constructor"
				},
				{
					"inputs": [
						{
							"internalType": "address",
							"name": "",
							"type": "address"
						}
					],
					"name": "balanceDetails",
					"outputs": [
						{
							"internalType": "uint256",
							"name": "escrow",
							"type": "uint256"
						},
						{
							"internalType": "uint256",
							"name": "status",
							"type": "uint256"
						},
						{
							"internalType": "uint256",
							"name": "hashOfDetails",
							"type": "uint256"
						}
					],
					"stateMutability": "view",
					"type": "function"
				},
				{
					"inputs": [],
					"name": "register",
					"outputs": [],
					"stateMutability": "payable",
					"type": "function"
				},
				{
					"inputs": [
						{
							"internalType": "address",
							"name": "toAirline",
							"type": "address"
						},
						{
							"internalType": "uint256",
							"name": "hashOfDetails",
							"type": "uint256"
						}
					],
					"name": "request",
					"outputs": [],
					"stateMutability": "nonpayable",
					"type": "function"
				},
				{
					"inputs": [
						{
							"internalType": "address",
							"name": "fromAirline",
							"type": "address"
						},
						{
							"internalType": "uint256",
							"name": "hashOfDetails",
							"type": "uint256"
						},
						{
							"internalType": "uint256",
							"name": "done",
							"type": "uint256"
						}
					],
					"name": "response",
					"outputs": [],
					"stateMutability": "nonpayable",
					"type": "function"
				},
				{
					"inputs": [
						{
							"internalType": "address payable",
							"name": "toAirline",
							"type": "address"
						}
					],
					"name": "settlePayment",
					"outputs": [],
					"stateMutability": "payable",
					"type": "function"
				},
				{
					"inputs": [
						{
							"internalType": "address payable",
							"name": "AirlineZ",
							"type": "address"
						}
					],
					"name": "unregister",
					"outputs": [],
					"stateMutability": "nonpayable",
					"type": "function"
				}
			],
			"devdoc": {
				"kind": "dev",
				"methods": {},
				"version": 1
			},
			"evm": {
				"assembly": "    /* \"contracts/ch02/Airlines.sol\":27:2295  contract Airlines{\r... */\n  mstore(0x40, 0x80)\n    /* \"contracts/ch02/Airlines.sol\":683:693  msg.sender */\n  caller\n    /* \"contracts/ch02/Airlines.sol\":670:681  chairperson */\n  0x00\n  dup1\n    /* \"contracts/ch02/Airlines.sol\":670:693  chairperson= msg.sender */\n  0x0100\n  exp\n  dup2\n  sload\n  dup2\n  0xffffffffffffffffffffffffffffffffffffffff\n  mul\n  not\n  and\n  swap1\n  dup4\n  0xffffffffffffffffffffffffffffffffffffffff\n  and\n  mul\n  or\n  swap1\n  sstore\n  pop\n    /* \"contracts/ch02/Airlines.sol\":727:728  1 */\n  0x01\n    /* \"contracts/ch02/Airlines.sol\":704:714  membership */\n  0x02\n    /* \"contracts/ch02/Airlines.sol\":704:726  membership[msg.sender] */\n  0x00\n    /* \"contracts/ch02/Airlines.sol\":715:725  msg.sender */\n  caller\n    /* \"contracts/ch02/Airlines.sol\":704:726  membership[msg.sender] */\n  0xffffffffffffffffffffffffffffffffffffffff\n  and\n  0xffffffffffffffffffffffffffffffffffffffff\n  and\n  dup2\n  mstore\n  0x20\n  add\n  swap1\n  dup2\n  mstore\n  0x20\n  add\n  0x00\n  keccak256\n    /* \"contracts/ch02/Airlines.sol\":704:728  membership[msg.sender]=1 */\n  dup2\n  swap1\n  sstore\n  pop\n    /* \"contracts/ch02/Airlines.sol\":773:782  msg.value */\n  callvalue\n    /* \"contracts/ch02/Airlines.sol\":739:753  balanceDetails */\n  0x01\n    /* \"contracts/ch02/Airlines.sol\":739:765  balanceDetails[msg.sender] */\n  0x00\n    /* \"contracts/ch02/Airlines.sol\":754:764  msg.sender */\n  caller\n    /* \"contracts/ch02/Airlines.sol\":739:765  balanceDetails[msg.sender] */\n  0xffffffffffffffffffffffffffffffffffffffff\n  and\n  0xffffffffffffffffffffffffffffffffffffffff\n  and\n  dup2\n  mstore\n  0x20\n  add\n  swap1\n  dup2\n  mstore\n  0x20\n  add\n  0x00\n  keccak256\n    /* \"contracts/ch02/Airlines.sol\":739:772  balanceDetails[msg.sender].escrow */\n  0x00\n  add\n    /* \"contracts/ch02/Airlines.sol\":739:782  balanceDetails[msg.sender].escrow=msg.value */\n  dup2\n  swap1\n  sstore\n  pop\n    /* \"contracts/ch02/Airlines.sol\":27:2295  contract Airlines{\r... */\n  dataSize(sub_0)\n  dup1\n  dataOffset(sub_0)\n  0x00\n  codecopy\n  0x00\n  return\nstop\n\nsub_0: assembly {\n        /* \"contracts/ch02/Airlines.sol\":27:2295  contract Airlines{\r... */\n      mstore(0x40, 0x80)\n      jumpi(tag_1, lt(calldatasize, 0x04))\n      shr(0xe0, calldataload(0x00))\n      dup1\n      0x1aa3a008\n      eq\n      tag_2\n      jumpi\n      dup1\n      0x2109dc88\n      eq\n      tag_3\n      jumpi\n      dup1\n      0x2ec2c246\n      eq\n      tag_4\n      jumpi\n      dup1\n      0x6d1954e0\n      eq\n      tag_5\n      jumpi\n      dup1\n      0xa3aa1913\n      eq\n      tag_6\n      jumpi\n      dup1\n      0xc8c01a55\n      eq\n      tag_7\n      jumpi\n    tag_1:\n      0x00\n      dup1\n      revert\n        /* \"contracts/ch02/Airlines.sol\":798:967  function register() public payable{\r... */\n    tag_2:\n      tag_8\n      tag_9\n      jump\t// in\n    tag_8:\n      stop\n        /* \"contracts/ch02/Airlines.sol\":1856:2290  function settlePayment (address payable toAirline) onnlyMember payable public{\r... */\n    tag_3:\n      tag_10\n      0x04\n      dup1\n      calldatasize\n      sub\n      dup2\n      add\n      swap1\n      tag_11\n      swap2\n      swap1\n      tag_12\n      jump\t// in\n    tag_11:\n      tag_13\n      jump\t// in\n    tag_10:\n      stop\n        /* \"contracts/ch02/Airlines.sol\":975:1271  function unregister(address payable AirlineZ) onlyChairperson public{\r... */\n    tag_4:\n      callvalue\n      dup1\n      iszero\n      tag_14\n      jumpi\n      0x00\n      dup1\n      revert\n    tag_14:\n      pop\n      tag_15\n      0x04\n      dup1\n      calldatasize\n      sub\n      dup2\n      add\n      swap1\n      tag_16\n      swap2\n      swap1\n      tag_12\n      jump\t// in\n    tag_16:\n      tag_17\n      jump\t// in\n    tag_15:\n      stop\n        /* \"contracts/ch02/Airlines.sol\":1558:1848  function response(address fromAirline, uint hashOfDetails, uint done) onnlyMember public{\r... */\n    tag_5:\n      callvalue\n      dup1\n      iszero\n      tag_18\n      jumpi\n      0x00\n      dup1\n      revert\n    tag_18:\n      pop\n      tag_19\n      0x04\n      dup1\n      calldatasize\n      sub\n      dup2\n      add\n      swap1\n      tag_20\n      swap2\n      swap1\n      tag_21\n      jump\t// in\n    tag_20:\n      tag_22\n      jump\t// in\n    tag_19:\n      stop\n        /* \"contracts/ch02/Airlines.sol\":238:288  mapping (address => details) public balanceDetails */\n    tag_6:\n      callvalue\n      dup1\n      iszero\n      tag_23\n      jumpi\n      0x00\n      dup1\n      revert\n    tag_23:\n      pop\n      tag_24\n      0x04\n      dup1\n      calldatasize\n      sub\n      dup2\n      add\n      swap1\n      tag_25\n      swap2\n      swap1\n      tag_26\n      jump\t// in\n    tag_25:\n      tag_27\n      jump\t// in\n    tag_24:\n      mload(0x40)\n      tag_28\n      swap4\n      swap3\n      swap2\n      swap1\n      tag_29\n      jump\t// in\n    tag_28:\n      mload(0x40)\n      dup1\n      swap2\n      sub\n      swap1\n      return\n        /* \"contracts/ch02/Airlines.sol\":1279:1548  function request(address toAirline, uint hashOfDetails) onnlyMember public{\r... */\n    tag_7:\n      callvalue\n      dup1\n      iszero\n      tag_30\n      jumpi\n      0x00\n      dup1\n      revert\n    tag_30:\n      pop\n      tag_31\n      0x04\n      dup1\n      calldatasize\n      sub\n      dup2\n      add\n      swap1\n      tag_32\n      swap2\n      swap1\n      tag_33\n      jump\t// in\n    tag_32:\n      tag_34\n      jump\t// in\n    tag_31:\n      stop\n        /* \"contracts/ch02/Airlines.sol\":798:967  function register() public payable{\r... */\n    tag_9:\n        /* \"contracts/ch02/Airlines.sol\":843:859  address AirlineA */\n      0x00\n        /* \"contracts/ch02/Airlines.sol\":861:871  msg.sender */\n      caller\n        /* \"contracts/ch02/Airlines.sol\":843:871  address AirlineA= msg.sender */\n      swap1\n      pop\n        /* \"contracts/ch02/Airlines.sol\":903:904  1 */\n      0x01\n        /* \"contracts/ch02/Airlines.sol\":882:892  membership */\n      0x02\n        /* \"contracts/ch02/Airlines.sol\":882:902  membership[AirlineA] */\n      0x00\n        /* \"contracts/ch02/Airlines.sol\":893:901  AirlineA */\n      dup4\n        /* \"contracts/ch02/Airlines.sol\":882:902  membership[AirlineA] */\n      0xffffffffffffffffffffffffffffffffffffffff\n      and\n      0xffffffffffffffffffffffffffffffffffffffff\n      and\n      dup2\n      mstore\n      0x20\n      add\n      swap1\n      dup2\n      mstore\n      0x20\n      add\n      0x00\n      keccak256\n        /* \"contracts/ch02/Airlines.sol\":882:904  membership[AirlineA]=1 */\n      dup2\n      swap1\n      sstore\n      pop\n        /* \"contracts/ch02/Airlines.sol\":950:959  msg.value */\n      callvalue\n        /* \"contracts/ch02/Airlines.sol\":915:929  balanceDetails */\n      0x01\n        /* \"contracts/ch02/Airlines.sol\":915:941  balanceDetails[msg.sender] */\n      0x00\n        /* \"contracts/ch02/Airlines.sol\":930:940  msg.sender */\n      caller\n        /* \"contracts/ch02/Airlines.sol\":915:941  balanceDetails[msg.sender] */\n      0xffffffffffffffffffffffffffffffffffffffff\n      and\n      0xffffffffffffffffffffffffffffffffffffffff\n      and\n      dup2\n      mstore\n      0x20\n      add\n      swap1\n      dup2\n      mstore\n      0x20\n      add\n      0x00\n      keccak256\n        /* \"contracts/ch02/Airlines.sol\":915:948  balanceDetails[msg.sender].escrow */\n      0x00\n      add\n        /* \"contracts/ch02/Airlines.sol\":915:959  balanceDetails[msg.sender].escrow= msg.value */\n      dup2\n      swap1\n      sstore\n      pop\n        /* \"contracts/ch02/Airlines.sol\":832:967  {\r... */\n      pop\n        /* \"contracts/ch02/Airlines.sol\":798:967  function register() public payable{\r... */\n      jump\t// out\n        /* \"contracts/ch02/Airlines.sol\":1856:2290  function settlePayment (address payable toAirline) onnlyMember payable public{\r... */\n    tag_13:\n        /* \"contracts/ch02/Airlines.sol\":578:579  1 */\n      0x01\n        /* \"contracts/ch02/Airlines.sol\":552:562  membership */\n      0x02\n        /* \"contracts/ch02/Airlines.sol\":552:574  membership[msg.sender] */\n      0x00\n        /* \"contracts/ch02/Airlines.sol\":563:573  msg.sender */\n      caller\n        /* \"contracts/ch02/Airlines.sol\":552:574  membership[msg.sender] */\n      0xffffffffffffffffffffffffffffffffffffffff\n      and\n      0xffffffffffffffffffffffffffffffffffffffff\n      and\n      dup2\n      mstore\n      0x20\n      add\n      swap1\n      dup2\n      mstore\n      0x20\n      add\n      0x00\n      keccak256\n      sload\n        /* \"contracts/ch02/Airlines.sol\":552:579  membership[msg.sender] == 1 */\n      eq\n        /* \"contracts/ch02/Airlines.sol\":544:580  require(membership[msg.sender] == 1) */\n      tag_37\n      jumpi\n      0x00\n      dup1\n      revert\n    tag_37:\n        /* \"contracts/ch02/Airlines.sol\":1944:1963  address fromAirline */\n      0x00\n        /* \"contracts/ch02/Airlines.sol\":1964:1974  msg.sender */\n      caller\n        /* \"contracts/ch02/Airlines.sol\":1944:1974  address fromAirline=msg.sender */\n      swap1\n      pop\n        /* \"contracts/ch02/Airlines.sol\":1985:1993  uint amt */\n      0x00\n        /* \"contracts/ch02/Airlines.sol\":1996:2005  msg.value */\n      callvalue\n        /* \"contracts/ch02/Airlines.sol\":1985:2005  uint amt = msg.value */\n      swap1\n      pop\n        /* \"contracts/ch02/Airlines.sol\":2086:2089  amt */\n      dup1\n        /* \"contracts/ch02/Airlines.sol\":2053:2067  balanceDetails */\n      0x01\n        /* \"contracts/ch02/Airlines.sol\":2053:2078  balanceDetails[toAirline] */\n      0x00\n        /* \"contracts/ch02/Airlines.sol\":2068:2077  toAirline */\n      dup6\n        /* \"contracts/ch02/Airlines.sol\":2053:2078  balanceDetails[toAirline] */\n      0xffffffffffffffffffffffffffffffffffffffff\n      and\n      0xffffffffffffffffffffffffffffffffffffffff\n      and\n      dup2\n      mstore\n      0x20\n      add\n      swap1\n      dup2\n      mstore\n      0x20\n      add\n      0x00\n      keccak256\n        /* \"contracts/ch02/Airlines.sol\":2053:2085  balanceDetails[toAirline].escrow */\n      0x00\n      add\n      sload\n        /* \"contracts/ch02/Airlines.sol\":2053:2089  balanceDetails[toAirline].escrow+amt */\n      tag_39\n      swap2\n      swap1\n      tag_40\n      jump\t// in\n    tag_39:\n        /* \"contracts/ch02/Airlines.sol\":2018:2032  balanceDetails */\n      0x01\n        /* \"contracts/ch02/Airlines.sol\":2018:2043  balanceDetails[toAirline] */\n      0x00\n        /* \"contracts/ch02/Airlines.sol\":2033:2042  toAirline */\n      dup6\n        /* \"contracts/ch02/Airlines.sol\":2018:2043  balanceDetails[toAirline] */\n      0xffffffffffffffffffffffffffffffffffffffff\n      and\n      0xffffffffffffffffffffffffffffffffffffffff\n      and\n      dup2\n      mstore\n      0x20\n      add\n      swap1\n      dup2\n      mstore\n      0x20\n      add\n      0x00\n      keccak256\n        /* \"contracts/ch02/Airlines.sol\":2018:2050  balanceDetails[toAirline].escrow */\n      0x00\n      add\n        /* \"contracts/ch02/Airlines.sol\":2018:2089  balanceDetails[toAirline].escrow = balanceDetails[toAirline].escrow+amt */\n      dup2\n      swap1\n      sstore\n      pop\n        /* \"contracts/ch02/Airlines.sol\":2172:2175  amt */\n      dup1\n        /* \"contracts/ch02/Airlines.sol\":2137:2151  balanceDetails */\n      0x01\n        /* \"contracts/ch02/Airlines.sol\":2137:2164  balanceDetails[fromAirline] */\n      0x00\n        /* \"contracts/ch02/Airlines.sol\":2152:2163  fromAirline */\n      dup5\n        /* \"contracts/ch02/Airlines.sol\":2137:2164  balanceDetails[fromAirline] */\n      0xffffffffffffffffffffffffffffffffffffffff\n      and\n      0xffffffffffffffffffffffffffffffffffffffff\n      and\n      dup2\n      mstore\n      0x20\n      add\n      swap1\n      dup2\n      mstore\n      0x20\n      add\n      0x00\n      keccak256\n        /* \"contracts/ch02/Airlines.sol\":2137:2171  balanceDetails[fromAirline].escrow */\n      0x00\n      add\n      sload\n        /* \"contracts/ch02/Airlines.sol\":2137:2175  balanceDetails[fromAirline].escrow-amt */\n      tag_41\n      swap2\n      swap1\n      tag_42\n      jump\t// in\n    tag_41:\n        /* \"contracts/ch02/Airlines.sol\":2100:2114  balanceDetails */\n      0x01\n        /* \"contracts/ch02/Airlines.sol\":2100:2127  balanceDetails[fromAirline] */\n      0x00\n        /* \"contracts/ch02/Airlines.sol\":2115:2126  fromAirline */\n      dup5\n        /* \"contracts/ch02/Airlines.sol\":2100:2127  balanceDetails[fromAirline] */\n      0xffffffffffffffffffffffffffffffffffffffff\n      and\n      0xffffffffffffffffffffffffffffffffffffffff\n      and\n      dup2\n      mstore\n      0x20\n      add\n      swap1\n      dup2\n      mstore\n      0x20\n      add\n      0x00\n      keccak256\n        /* \"contracts/ch02/Airlines.sol\":2100:2134  balanceDetails[fromAirline].escrow */\n      0x00\n      add\n        /* \"contracts/ch02/Airlines.sol\":2100:2175  balanceDetails[fromAirline].escrow = balanceDetails[fromAirline].escrow-amt */\n      dup2\n      swap1\n      sstore\n      pop\n        /* \"contracts/ch02/Airlines.sol\":2259:2268  toAirline */\n      dup3\n        /* \"contracts/ch02/Airlines.sol\":2259:2277  toAirline.transfer */\n      0xffffffffffffffffffffffffffffffffffffffff\n      and\n        /* \"contracts/ch02/Airlines.sol\":2259:2282  toAirline.transfer(amt) */\n      0x08fc\n        /* \"contracts/ch02/Airlines.sol\":2278:2281  amt */\n      dup3\n        /* \"contracts/ch02/Airlines.sol\":2259:2282  toAirline.transfer(amt) */\n      swap1\n      dup2\n      iszero\n      mul\n      swap1\n      mload(0x40)\n      0x00\n      mload(0x40)\n      dup1\n      dup4\n      sub\n      dup2\n      dup6\n      dup9\n      dup9\n      call\n      swap4\n      pop\n      pop\n      pop\n      pop\n      iszero\n      dup1\n      iszero\n      tag_44\n      jumpi\n      returndatasize\n      0x00\n      dup1\n      returndatacopy\n      revert(0x00, returndatasize)\n    tag_44:\n      pop\n        /* \"contracts/ch02/Airlines.sol\":1933:2290  {\r... */\n      pop\n      pop\n        /* \"contracts/ch02/Airlines.sol\":1856:2290  function settlePayment (address payable toAirline) onnlyMember payable public{\r... */\n      pop\n      jump\t// out\n        /* \"contracts/ch02/Airlines.sol\":975:1271  function unregister(address payable AirlineZ) onlyChairperson public{\r... */\n    tag_17:\n        /* \"contracts/ch02/Airlines.sol\":473:484  chairperson */\n      0x00\n      dup1\n      sload\n      swap1\n      0x0100\n      exp\n      swap1\n      div\n      0xffffffffffffffffffffffffffffffffffffffff\n      and\n        /* \"contracts/ch02/Airlines.sol\":461:484  msg.sender==chairperson */\n      0xffffffffffffffffffffffffffffffffffffffff\n      and\n        /* \"contracts/ch02/Airlines.sol\":461:471  msg.sender */\n      caller\n        /* \"contracts/ch02/Airlines.sol\":461:484  msg.sender==chairperson */\n      0xffffffffffffffffffffffffffffffffffffffff\n      and\n      eq\n        /* \"contracts/ch02/Airlines.sol\":453:485  require(msg.sender==chairperson) */\n      tag_46\n      jumpi\n      0x00\n      dup1\n      revert\n    tag_46:\n        /* \"contracts/ch02/Airlines.sol\":1075:1076  0 */\n      0x00\n        /* \"contracts/ch02/Airlines.sol\":1054:1064  membership */\n      0x02\n        /* \"contracts/ch02/Airlines.sol\":1054:1074  membership[AirlineZ] */\n      0x00\n        /* \"contracts/ch02/Airlines.sol\":1065:1073  AirlineZ */\n      dup4\n        /* \"contracts/ch02/Airlines.sol\":1054:1074  membership[AirlineZ] */\n      0xffffffffffffffffffffffffffffffffffffffff\n      and\n      0xffffffffffffffffffffffffffffffffffffffff\n      and\n      dup2\n      mstore\n      0x20\n      add\n      swap1\n      dup2\n      mstore\n      0x20\n      add\n      0x00\n      keccak256\n        /* \"contracts/ch02/Airlines.sol\":1054:1076  membership[AirlineZ]=0 */\n      dup2\n      swap1\n      sstore\n      pop\n        /* \"contracts/ch02/Airlines.sol\":1168:1176  AirlineZ */\n      dup1\n        /* \"contracts/ch02/Airlines.sol\":1168:1185  AirlineZ.transfer */\n      0xffffffffffffffffffffffffffffffffffffffff\n      and\n        /* \"contracts/ch02/Airlines.sol\":1168:1218  AirlineZ.transfer(balanceDetails[AirlineZ].escrow) */\n      0x08fc\n        /* \"contracts/ch02/Airlines.sol\":1186:1200  balanceDetails */\n      0x01\n        /* \"contracts/ch02/Airlines.sol\":1186:1210  balanceDetails[AirlineZ] */\n      0x00\n        /* \"contracts/ch02/Airlines.sol\":1201:1209  AirlineZ */\n      dup5\n        /* \"contracts/ch02/Airlines.sol\":1186:1210  balanceDetails[AirlineZ] */\n      0xffffffffffffffffffffffffffffffffffffffff\n      and\n      0xffffffffffffffffffffffffffffffffffffffff\n      and\n      dup2\n      mstore\n      0x20\n      add\n      swap1\n      dup2\n      mstore\n      0x20\n      add\n      0x00\n      keccak256\n        /* \"contracts/ch02/Airlines.sol\":1186:1217  balanceDetails[AirlineZ].escrow */\n      0x00\n      add\n      sload\n        /* \"contracts/ch02/Airlines.sol\":1168:1218  AirlineZ.transfer(balanceDetails[AirlineZ].escrow) */\n      swap1\n      dup2\n      iszero\n      mul\n      swap1\n      mload(0x40)\n      0x00\n      mload(0x40)\n      dup1\n      dup4\n      sub\n      dup2\n      dup6\n      dup9\n      dup9\n      call\n      swap4\n      pop\n      pop\n      pop\n      pop\n      iszero\n      dup1\n      iszero\n      tag_49\n      jumpi\n      returndatasize\n      0x00\n      dup1\n      returndatacopy\n      revert(0x00, returndatasize)\n    tag_49:\n      pop\n        /* \"contracts/ch02/Airlines.sol\":1262:1263  0 */\n      0x00\n        /* \"contracts/ch02/Airlines.sol\":1229:1243  balanceDetails */\n      0x01\n        /* \"contracts/ch02/Airlines.sol\":1229:1253  balanceDetails[AirlineZ] */\n      0x00\n        /* \"contracts/ch02/Airlines.sol\":1244:1252  AirlineZ */\n      dup4\n        /* \"contracts/ch02/Airlines.sol\":1229:1253  balanceDetails[AirlineZ] */\n      0xffffffffffffffffffffffffffffffffffffffff\n      and\n      0xffffffffffffffffffffffffffffffffffffffff\n      and\n      dup2\n      mstore\n      0x20\n      add\n      swap1\n      dup2\n      mstore\n      0x20\n      add\n      0x00\n      keccak256\n        /* \"contracts/ch02/Airlines.sol\":1229:1260  balanceDetails[AirlineZ].escrow */\n      0x00\n      add\n        /* \"contracts/ch02/Airlines.sol\":1229:1263  balanceDetails[AirlineZ].escrow =0 */\n      dup2\n      swap1\n      sstore\n      pop\n        /* \"contracts/ch02/Airlines.sol\":975:1271  function unregister(address payable AirlineZ) onlyChairperson public{\r... */\n      pop\n      jump\t// out\n        /* \"contracts/ch02/Airlines.sol\":1558:1848  function response(address fromAirline, uint hashOfDetails, uint done) onnlyMember public{\r... */\n    tag_22:\n        /* \"contracts/ch02/Airlines.sol\":578:579  1 */\n      0x01\n        /* \"contracts/ch02/Airlines.sol\":552:562  membership */\n      0x02\n        /* \"contracts/ch02/Airlines.sol\":552:574  membership[msg.sender] */\n      0x00\n        /* \"contracts/ch02/Airlines.sol\":563:573  msg.sender */\n      caller\n        /* \"contracts/ch02/Airlines.sol\":552:574  membership[msg.sender] */\n      0xffffffffffffffffffffffffffffffffffffffff\n      and\n      0xffffffffffffffffffffffffffffffffffffffff\n      and\n      dup2\n      mstore\n      0x20\n      add\n      swap1\n      dup2\n      mstore\n      0x20\n      add\n      0x00\n      keccak256\n      sload\n        /* \"contracts/ch02/Airlines.sol\":552:579  membership[msg.sender] == 1 */\n      eq\n        /* \"contracts/ch02/Airlines.sol\":544:580  require(membership[msg.sender] == 1) */\n      tag_51\n      jumpi\n      0x00\n      dup1\n      revert\n    tag_51:\n        /* \"contracts/ch02/Airlines.sol\":1686:1687  1 */\n      0x01\n        /* \"contracts/ch02/Airlines.sol\":1660:1670  membership */\n      0x02\n        /* \"contracts/ch02/Airlines.sol\":1660:1683  membership[fromAirline] */\n      0x00\n        /* \"contracts/ch02/Airlines.sol\":1671:1682  fromAirline */\n      dup6\n        /* \"contracts/ch02/Airlines.sol\":1660:1683  membership[fromAirline] */\n      0xffffffffffffffffffffffffffffffffffffffff\n      and\n      0xffffffffffffffffffffffffffffffffffffffff\n      and\n      dup2\n      mstore\n      0x20\n      add\n      swap1\n      dup2\n      mstore\n      0x20\n      add\n      0x00\n      keccak256\n      sload\n        /* \"contracts/ch02/Airlines.sol\":1660:1687  membership[fromAirline]!= 1 */\n      eq\n        /* \"contracts/ch02/Airlines.sol\":1657:1723  if(membership[fromAirline]!= 1){\r... */\n      tag_53\n      jumpi\n        /* \"contracts/ch02/Airlines.sol\":1703:1711  revert() */\n      0x00\n      dup1\n      revert\n        /* \"contracts/ch02/Airlines.sol\":1657:1723  if(membership[fromAirline]!= 1){\r... */\n    tag_53:\n        /* \"contracts/ch02/Airlines.sol\":1768:1772  done */\n      dup1\n        /* \"contracts/ch02/Airlines.sol\":1733:1747  balanceDetails */\n      0x01\n        /* \"contracts/ch02/Airlines.sol\":1733:1759  balanceDetails[msg.sender] */\n      0x00\n        /* \"contracts/ch02/Airlines.sol\":1748:1758  msg.sender */\n      caller\n        /* \"contracts/ch02/Airlines.sol\":1733:1759  balanceDetails[msg.sender] */\n      0xffffffffffffffffffffffffffffffffffffffff\n      and\n      0xffffffffffffffffffffffffffffffffffffffff\n      and\n      dup2\n      mstore\n      0x20\n      add\n      swap1\n      dup2\n      mstore\n      0x20\n      add\n      0x00\n      keccak256\n        /* \"contracts/ch02/Airlines.sol\":1733:1766  balanceDetails[msg.sender].status */\n      0x01\n      add\n        /* \"contracts/ch02/Airlines.sol\":1733:1772  balanceDetails[msg.sender].status= done */\n      dup2\n      swap1\n      sstore\n      pop\n        /* \"contracts/ch02/Airlines.sol\":1827:1840  hashOfDetails */\n      dup2\n        /* \"contracts/ch02/Airlines.sol\":1783:1797  balanceDetails */\n      0x01\n        /* \"contracts/ch02/Airlines.sol\":1783:1810  balanceDetails[fromAirline] */\n      0x00\n        /* \"contracts/ch02/Airlines.sol\":1798:1809  fromAirline */\n      dup6\n        /* \"contracts/ch02/Airlines.sol\":1783:1810  balanceDetails[fromAirline] */\n      0xffffffffffffffffffffffffffffffffffffffff\n      and\n      0xffffffffffffffffffffffffffffffffffffffff\n      and\n      dup2\n      mstore\n      0x20\n      add\n      swap1\n      dup2\n      mstore\n      0x20\n      add\n      0x00\n      keccak256\n        /* \"contracts/ch02/Airlines.sol\":1783:1824  balanceDetails[fromAirline].hashOfDetails */\n      0x02\n      add\n        /* \"contracts/ch02/Airlines.sol\":1783:1840  balanceDetails[fromAirline].hashOfDetails = hashOfDetails */\n      dup2\n      swap1\n      sstore\n      pop\n        /* \"contracts/ch02/Airlines.sol\":1558:1848  function response(address fromAirline, uint hashOfDetails, uint done) onnlyMember public{\r... */\n      pop\n      pop\n      pop\n      jump\t// out\n        /* \"contracts/ch02/Airlines.sol\":238:288  mapping (address => details) public balanceDetails */\n    tag_27:\n      mstore(0x20, 0x01)\n      dup1\n      0x00\n      mstore\n      keccak256(0x00, 0x40)\n      0x00\n      swap2\n      pop\n      swap1\n      pop\n      dup1\n      0x00\n      add\n      sload\n      swap1\n      dup1\n      0x01\n      add\n      sload\n      swap1\n      dup1\n      0x02\n      add\n      sload\n      swap1\n      pop\n      dup4\n      jump\t// out\n        /* \"contracts/ch02/Airlines.sol\":1279:1548  function request(address toAirline, uint hashOfDetails) onnlyMember public{\r... */\n    tag_34:\n        /* \"contracts/ch02/Airlines.sol\":578:579  1 */\n      0x01\n        /* \"contracts/ch02/Airlines.sol\":552:562  membership */\n      0x02\n        /* \"contracts/ch02/Airlines.sol\":552:574  membership[msg.sender] */\n      0x00\n        /* \"contracts/ch02/Airlines.sol\":563:573  msg.sender */\n      caller\n        /* \"contracts/ch02/Airlines.sol\":552:574  membership[msg.sender] */\n      0xffffffffffffffffffffffffffffffffffffffff\n      and\n      0xffffffffffffffffffffffffffffffffffffffff\n      and\n      dup2\n      mstore\n      0x20\n      add\n      swap1\n      dup2\n      mstore\n      0x20\n      add\n      0x00\n      keccak256\n      sload\n        /* \"contracts/ch02/Airlines.sol\":552:579  membership[msg.sender] == 1 */\n      eq\n        /* \"contracts/ch02/Airlines.sol\":544:580  require(membership[msg.sender] == 1) */\n      tag_55\n      jumpi\n      0x00\n      dup1\n      revert\n    tag_55:\n        /* \"contracts/ch02/Airlines.sol\":1391:1392  1 */\n      0x01\n        /* \"contracts/ch02/Airlines.sol\":1367:1377  membership */\n      0x02\n        /* \"contracts/ch02/Airlines.sol\":1367:1388  membership[toAirline] */\n      0x00\n        /* \"contracts/ch02/Airlines.sol\":1378:1387  toAirline */\n      dup5\n        /* \"contracts/ch02/Airlines.sol\":1367:1388  membership[toAirline] */\n      0xffffffffffffffffffffffffffffffffffffffff\n      and\n      0xffffffffffffffffffffffffffffffffffffffff\n      and\n      dup2\n      mstore\n      0x20\n      add\n      swap1\n      dup2\n      mstore\n      0x20\n      add\n      0x00\n      keccak256\n      sload\n        /* \"contracts/ch02/Airlines.sol\":1367:1392  membership[toAirline]!= 1 */\n      eq\n        /* \"contracts/ch02/Airlines.sol\":1364:1428  if(membership[toAirline]!= 1){\r... */\n      tag_57\n      jumpi\n        /* \"contracts/ch02/Airlines.sol\":1408:1416  revert() */\n      0x00\n      dup1\n      revert\n        /* \"contracts/ch02/Airlines.sol\":1364:1428  if(membership[toAirline]!= 1){\r... */\n    tag_57:\n        /* \"contracts/ch02/Airlines.sol\":1473:1474  0 */\n      0x00\n        /* \"contracts/ch02/Airlines.sol\":1438:1452  balanceDetails */\n      0x01\n        /* \"contracts/ch02/Airlines.sol\":1438:1464  balanceDetails[msg.sender] */\n      0x00\n        /* \"contracts/ch02/Airlines.sol\":1453:1463  msg.sender */\n      caller\n        /* \"contracts/ch02/Airlines.sol\":1438:1464  balanceDetails[msg.sender] */\n      0xffffffffffffffffffffffffffffffffffffffff\n      and\n      0xffffffffffffffffffffffffffffffffffffffff\n      and\n      dup2\n      mstore\n      0x20\n      add\n      swap1\n      dup2\n      mstore\n      0x20\n      add\n      0x00\n      keccak256\n        /* \"contracts/ch02/Airlines.sol\":1438:1471  balanceDetails[msg.sender].status */\n      0x01\n      add\n        /* \"contracts/ch02/Airlines.sol\":1438:1474  balanceDetails[msg.sender].status= 0 */\n      dup2\n      swap1\n      sstore\n      pop\n        /* \"contracts/ch02/Airlines.sol\":1527:1540  hashOfDetails */\n      dup1\n        /* \"contracts/ch02/Airlines.sol\":1485:1499  balanceDetails */\n      0x01\n        /* \"contracts/ch02/Airlines.sol\":1485:1510  balanceDetails[toAirline] */\n      0x00\n        /* \"contracts/ch02/Airlines.sol\":1500:1509  toAirline */\n      dup5\n        /* \"contracts/ch02/Airlines.sol\":1485:1510  balanceDetails[toAirline] */\n      0xffffffffffffffffffffffffffffffffffffffff\n      and\n      0xffffffffffffffffffffffffffffffffffffffff\n      and\n      dup2\n      mstore\n      0x20\n      add\n      swap1\n      dup2\n      mstore\n      0x20\n      add\n      0x00\n      keccak256\n        /* \"contracts/ch02/Airlines.sol\":1485:1524  balanceDetails[toAirline].hashOfDetails */\n      0x02\n      add\n        /* \"contracts/ch02/Airlines.sol\":1485:1540  balanceDetails[toAirline].hashOfDetails = hashOfDetails */\n      dup2\n      swap1\n      sstore\n      pop\n        /* \"contracts/ch02/Airlines.sol\":1279:1548  function request(address toAirline, uint hashOfDetails) onnlyMember public{\r... */\n      pop\n      pop\n      jump\t// out\n        /* \"#utility.yul\":7:146   */\n    tag_59:\n        /* \"#utility.yul\":53:58   */\n      0x00\n        /* \"#utility.yul\":91:97   */\n      dup2\n        /* \"#utility.yul\":78:98   */\n      calldataload\n        /* \"#utility.yul\":69:98   */\n      swap1\n      pop\n        /* \"#utility.yul\":107:140   */\n      tag_61\n        /* \"#utility.yul\":134:139   */\n      dup2\n        /* \"#utility.yul\":107:140   */\n      tag_62\n      jump\t// in\n    tag_61:\n        /* \"#utility.yul\":7:146   */\n      swap3\n      swap2\n      pop\n      pop\n      jump\t// out\n        /* \"#utility.yul\":152:307   */\n    tag_63:\n        /* \"#utility.yul\":206:211   */\n      0x00\n        /* \"#utility.yul\":244:250   */\n      dup2\n        /* \"#utility.yul\":231:251   */\n      calldataload\n        /* \"#utility.yul\":222:251   */\n      swap1\n      pop\n        /* \"#utility.yul\":260:301   */\n      tag_65\n        /* \"#utility.yul\":295:300   */\n      dup2\n        /* \"#utility.yul\":260:301   */\n      tag_66\n      jump\t// in\n    tag_65:\n        /* \"#utility.yul\":152:307   */\n      swap3\n      swap2\n      pop\n      pop\n      jump\t// out\n        /* \"#utility.yul\":313:452   */\n    tag_67:\n        /* \"#utility.yul\":359:364   */\n      0x00\n        /* \"#utility.yul\":397:403   */\n      dup2\n        /* \"#utility.yul\":384:404   */\n      calldataload\n        /* \"#utility.yul\":375:404   */\n      swap1\n      pop\n        /* \"#utility.yul\":413:446   */\n      tag_69\n        /* \"#utility.yul\":440:445   */\n      dup2\n        /* \"#utility.yul\":413:446   */\n      tag_70\n      jump\t// in\n    tag_69:\n        /* \"#utility.yul\":313:452   */\n      swap3\n      swap2\n      pop\n      pop\n      jump\t// out\n        /* \"#utility.yul\":458:787   */\n    tag_26:\n        /* \"#utility.yul\":517:523   */\n      0x00\n        /* \"#utility.yul\":566:568   */\n      0x20\n        /* \"#utility.yul\":554:563   */\n      dup3\n        /* \"#utility.yul\":545:552   */\n      dup5\n        /* \"#utility.yul\":541:564   */\n      sub\n        /* \"#utility.yul\":537:569   */\n      slt\n        /* \"#utility.yul\":534:653   */\n      iszero\n      tag_72\n      jumpi\n        /* \"#utility.yul\":572:651   */\n      tag_73\n      tag_74\n      jump\t// in\n    tag_73:\n        /* \"#utility.yul\":534:653   */\n    tag_72:\n        /* \"#utility.yul\":692:693   */\n      0x00\n        /* \"#utility.yul\":717:770   */\n      tag_75\n        /* \"#utility.yul\":762:769   */\n      dup5\n        /* \"#utility.yul\":753:759   */\n      dup3\n        /* \"#utility.yul\":742:751   */\n      dup6\n        /* \"#utility.yul\":738:760   */\n      add\n        /* \"#utility.yul\":717:770   */\n      tag_59\n      jump\t// in\n    tag_75:\n        /* \"#utility.yul\":707:770   */\n      swap2\n      pop\n        /* \"#utility.yul\":663:780   */\n      pop\n        /* \"#utility.yul\":458:787   */\n      swap3\n      swap2\n      pop\n      pop\n      jump\t// out\n        /* \"#utility.yul\":793:1138   */\n    tag_12:\n        /* \"#utility.yul\":860:866   */\n      0x00\n        /* \"#utility.yul\":909:911   */\n      0x20\n        /* \"#utility.yul\":897:906   */\n      dup3\n        /* \"#utility.yul\":888:895   */\n      dup5\n        /* \"#utility.yul\":884:907   */\n      sub\n        /* \"#utility.yul\":880:912   */\n      slt\n        /* \"#utility.yul\":877:996   */\n      iszero\n      tag_77\n      jumpi\n        /* \"#utility.yul\":915:994   */\n      tag_78\n      tag_74\n      jump\t// in\n    tag_78:\n        /* \"#utility.yul\":877:996   */\n    tag_77:\n        /* \"#utility.yul\":1035:1036   */\n      0x00\n        /* \"#utility.yul\":1060:1121   */\n      tag_79\n        /* \"#utility.yul\":1113:1120   */\n      dup5\n        /* \"#utility.yul\":1104:1110   */\n      dup3\n        /* \"#utility.yul\":1093:1102   */\n      dup6\n        /* \"#utility.yul\":1089:1111   */\n      add\n        /* \"#utility.yul\":1060:1121   */\n      tag_63\n      jump\t// in\n    tag_79:\n        /* \"#utility.yul\":1050:1121   */\n      swap2\n      pop\n        /* \"#utility.yul\":1006:1131   */\n      pop\n        /* \"#utility.yul\":793:1138   */\n      swap3\n      swap2\n      pop\n      pop\n      jump\t// out\n        /* \"#utility.yul\":1144:1618   */\n    tag_33:\n        /* \"#utility.yul\":1212:1218   */\n      0x00\n        /* \"#utility.yul\":1220:1226   */\n      dup1\n        /* \"#utility.yul\":1269:1271   */\n      0x40\n        /* \"#utility.yul\":1257:1266   */\n      dup4\n        /* \"#utility.yul\":1248:1255   */\n      dup6\n        /* \"#utility.yul\":1244:1267   */\n      sub\n        /* \"#utility.yul\":1240:1272   */\n      slt\n        /* \"#utility.yul\":1237:1356   */\n      iszero\n      tag_81\n      jumpi\n        /* \"#utility.yul\":1275:1354   */\n      tag_82\n      tag_74\n      jump\t// in\n    tag_82:\n        /* \"#utility.yul\":1237:1356   */\n    tag_81:\n        /* \"#utility.yul\":1395:1396   */\n      0x00\n        /* \"#utility.yul\":1420:1473   */\n      tag_83\n        /* \"#utility.yul\":1465:1472   */\n      dup6\n        /* \"#utility.yul\":1456:1462   */\n      dup3\n        /* \"#utility.yul\":1445:1454   */\n      dup7\n        /* \"#utility.yul\":1441:1463   */\n      add\n        /* \"#utility.yul\":1420:1473   */\n      tag_59\n      jump\t// in\n    tag_83:\n        /* \"#utility.yul\":1410:1473   */\n      swap3\n      pop\n        /* \"#utility.yul\":1366:1483   */\n      pop\n        /* \"#utility.yul\":1522:1524   */\n      0x20\n        /* \"#utility.yul\":1548:1601   */\n      tag_84\n        /* \"#utility.yul\":1593:1600   */\n      dup6\n        /* \"#utility.yul\":1584:1590   */\n      dup3\n        /* \"#utility.yul\":1573:1582   */\n      dup7\n        /* \"#utility.yul\":1569:1591   */\n      add\n        /* \"#utility.yul\":1548:1601   */\n      tag_67\n      jump\t// in\n    tag_84:\n        /* \"#utility.yul\":1538:1601   */\n      swap2\n      pop\n        /* \"#utility.yul\":1493:1611   */\n      pop\n        /* \"#utility.yul\":1144:1618   */\n      swap3\n      pop\n      swap3\n      swap1\n      pop\n      jump\t// out\n        /* \"#utility.yul\":1624:2243   */\n    tag_21:\n        /* \"#utility.yul\":1701:1707   */\n      0x00\n        /* \"#utility.yul\":1709:1715   */\n      dup1\n        /* \"#utility.yul\":1717:1723   */\n      0x00\n        /* \"#utility.yul\":1766:1768   */\n      0x60\n        /* \"#utility.yul\":1754:1763   */\n      dup5\n        /* \"#utility.yul\":1745:1752   */\n      dup7\n        /* \"#utility.yul\":1741:1764   */\n      sub\n        /* \"#utility.yul\":1737:1769   */\n      slt\n        /* \"#utility.yul\":1734:1853   */\n      iszero\n      tag_86\n      jumpi\n        /* \"#utility.yul\":1772:1851   */\n      tag_87\n      tag_74\n      jump\t// in\n    tag_87:\n        /* \"#utility.yul\":1734:1853   */\n    tag_86:\n        /* \"#utility.yul\":1892:1893   */\n      0x00\n        /* \"#utility.yul\":1917:1970   */\n      tag_88\n        /* \"#utility.yul\":1962:1969   */\n      dup7\n        /* \"#utility.yul\":1953:1959   */\n      dup3\n        /* \"#utility.yul\":1942:1951   */\n      dup8\n        /* \"#utility.yul\":1938:1960   */\n      add\n        /* \"#utility.yul\":1917:1970   */\n      tag_59\n      jump\t// in\n    tag_88:\n        /* \"#utility.yul\":1907:1970   */\n      swap4\n      pop\n        /* \"#utility.yul\":1863:1980   */\n      pop\n        /* \"#utility.yul\":2019:2021   */\n      0x20\n        /* \"#utility.yul\":2045:2098   */\n      tag_89\n        /* \"#utility.yul\":2090:2097   */\n      dup7\n        /* \"#utility.yul\":2081:2087   */\n      dup3\n        /* \"#utility.yul\":2070:2079   */\n      dup8\n        /* \"#utility.yul\":2066:2088   */\n      add\n        /* \"#utility.yul\":2045:2098   */\n      tag_67\n      jump\t// in\n    tag_89:\n        /* \"#utility.yul\":2035:2098   */\n      swap3\n      pop\n        /* \"#utility.yul\":1990:2108   */\n      pop\n        /* \"#utility.yul\":2147:2149   */\n      0x40\n        /* \"#utility.yul\":2173:2226   */\n      tag_90\n        /* \"#utility.yul\":2218:2225   */\n      dup7\n        /* \"#utility.yul\":2209:2215   */\n      dup3\n        /* \"#utility.yul\":2198:2207   */\n      dup8\n        /* \"#utility.yul\":2194:2216   */\n      add\n        /* \"#utility.yul\":2173:2226   */\n      tag_67\n      jump\t// in\n    tag_90:\n        /* \"#utility.yul\":2163:2226   */\n      swap2\n      pop\n        /* \"#utility.yul\":2118:2236   */\n      pop\n        /* \"#utility.yul\":1624:2243   */\n      swap3\n      pop\n      swap3\n      pop\n      swap3\n      jump\t// out\n        /* \"#utility.yul\":2249:2367   */\n    tag_91:\n        /* \"#utility.yul\":2336:2360   */\n      tag_93\n        /* \"#utility.yul\":2354:2359   */\n      dup2\n        /* \"#utility.yul\":2336:2360   */\n      tag_94\n      jump\t// in\n    tag_93:\n        /* \"#utility.yul\":2331:2334   */\n      dup3\n        /* \"#utility.yul\":2324:2361   */\n      mstore\n        /* \"#utility.yul\":2249:2367   */\n      pop\n      pop\n      jump\t// out\n        /* \"#utility.yul\":2373:2815   */\n    tag_29:\n        /* \"#utility.yul\":2522:2526   */\n      0x00\n        /* \"#utility.yul\":2560:2562   */\n      0x60\n        /* \"#utility.yul\":2549:2558   */\n      dup3\n        /* \"#utility.yul\":2545:2563   */\n      add\n        /* \"#utility.yul\":2537:2563   */\n      swap1\n      pop\n        /* \"#utility.yul\":2573:2644   */\n      tag_96\n        /* \"#utility.yul\":2641:2642   */\n      0x00\n        /* \"#utility.yul\":2630:2639   */\n      dup4\n        /* \"#utility.yul\":2626:2643   */\n      add\n        /* \"#utility.yul\":2617:2623   */\n      dup7\n        /* \"#utility.yul\":2573:2644   */\n      tag_91\n      jump\t// in\n    tag_96:\n        /* \"#utility.yul\":2654:2726   */\n      tag_97\n        /* \"#utility.yul\":2722:2724   */\n      0x20\n        /* \"#utility.yul\":2711:2720   */\n      dup4\n        /* \"#utility.yul\":2707:2725   */\n      add\n        /* \"#utility.yul\":2698:2704   */\n      dup6\n        /* \"#utility.yul\":2654:2726   */\n      tag_91\n      jump\t// in\n    tag_97:\n        /* \"#utility.yul\":2736:2808   */\n      tag_98\n        /* \"#utility.yul\":2804:2806   */\n      0x40\n        /* \"#utility.yul\":2793:2802   */\n      dup4\n        /* \"#utility.yul\":2789:2807   */\n      add\n        /* \"#utility.yul\":2780:2786   */\n      dup5\n        /* \"#utility.yul\":2736:2808   */\n      tag_91\n      jump\t// in\n    tag_98:\n        /* \"#utility.yul\":2373:2815   */\n      swap5\n      swap4\n      pop\n      pop\n      pop\n      pop\n      jump\t// out\n        /* \"#utility.yul\":2902:3207   */\n    tag_40:\n        /* \"#utility.yul\":2942:2945   */\n      0x00\n        /* \"#utility.yul\":2961:2981   */\n      tag_102\n        /* \"#utility.yul\":2979:2980   */\n      dup3\n        /* \"#utility.yul\":2961:2981   */\n      tag_94\n      jump\t// in\n    tag_102:\n        /* \"#utility.yul\":2956:2981   */\n      swap2\n      pop\n        /* \"#utility.yul\":2995:3015   */\n      tag_103\n        /* \"#utility.yul\":3013:3014   */\n      dup4\n        /* \"#utility.yul\":2995:3015   */\n      tag_94\n      jump\t// in\n    tag_103:\n        /* \"#utility.yul\":2990:3015   */\n      swap3\n      pop\n        /* \"#utility.yul\":3149:3150   */\n      dup3\n        /* \"#utility.yul\":3081:3147   */\n      0xffffffffffffffffffffffffffffffffffffffffffffffffffffffffffffffff\n        /* \"#utility.yul\":3077:3151   */\n      sub\n        /* \"#utility.yul\":3074:3075   */\n      dup3\n        /* \"#utility.yul\":3071:3152   */\n      gt\n        /* \"#utility.yul\":3068:3175   */\n      iszero\n      tag_104\n      jumpi\n        /* \"#utility.yul\":3155:3173   */\n      tag_105\n      tag_106\n      jump\t// in\n    tag_105:\n        /* \"#utility.yul\":3068:3175   */\n    tag_104:\n        /* \"#utility.yul\":3199:3200   */\n      dup3\n        /* \"#utility.yul\":3196:3197   */\n      dup3\n        /* \"#utility.yul\":3192:3201   */\n      add\n        /* \"#utility.yul\":3185:3201   */\n      swap1\n      pop\n        /* \"#utility.yul\":2902:3207   */\n      swap3\n      swap2\n      pop\n      pop\n      jump\t// out\n        /* \"#utility.yul\":3213:3404   */\n    tag_42:\n        /* \"#utility.yul\":3253:3257   */\n      0x00\n        /* \"#utility.yul\":3273:3293   */\n      tag_108\n        /* \"#utility.yul\":3291:3292   */\n      dup3\n        /* \"#utility.yul\":3273:3293   */\n      tag_94\n      jump\t// in\n    tag_108:\n        /* \"#utility.yul\":3268:3293   */\n      swap2\n      pop\n        /* \"#utility.yul\":3307:3327   */\n      tag_109\n        /* \"#utility.yul\":3325:3326   */\n      dup4\n        /* \"#utility.yul\":3307:3327   */\n      tag_94\n      jump\t// in\n    tag_109:\n        /* \"#utility.yul\":3302:3327   */\n      swap3\n      pop\n        /* \"#utility.yul\":3346:3347   */\n      dup3\n        /* \"#utility.yul\":3343:3344   */\n      dup3\n        /* \"#utility.yul\":3340:3348   */\n      lt\n        /* \"#utility.yul\":3337:3371   */\n      iszero\n      tag_110\n      jumpi\n        /* \"#utility.yul\":3351:3369   */\n      tag_111\n      tag_106\n      jump\t// in\n    tag_111:\n        /* \"#utility.yul\":3337:3371   */\n    tag_110:\n        /* \"#utility.yul\":3396:3397   */\n      dup3\n        /* \"#utility.yul\":3393:3394   */\n      dup3\n        /* \"#utility.yul\":3389:3398   */\n      sub\n        /* \"#utility.yul\":3381:3398   */\n      swap1\n      pop\n        /* \"#utility.yul\":3213:3404   */\n      swap3\n      swap2\n      pop\n      pop\n      jump\t// out\n        /* \"#utility.yul\":3410:3506   */\n    tag_112:\n        /* \"#utility.yul\":3447:3454   */\n      0x00\n        /* \"#utility.yul\":3476:3500   */\n      tag_114\n        /* \"#utility.yul\":3494:3499   */\n      dup3\n        /* \"#utility.yul\":3476:3500   */\n      tag_115\n      jump\t// in\n    tag_114:\n        /* \"#utility.yul\":3465:3500   */\n      swap1\n      pop\n        /* \"#utility.yul\":3410:3506   */\n      swap2\n      swap1\n      pop\n      jump\t// out\n        /* \"#utility.yul\":3512:3616   */\n    tag_116:\n        /* \"#utility.yul\":3557:3564   */\n      0x00\n        /* \"#utility.yul\":3586:3610   */\n      tag_118\n        /* \"#utility.yul\":3604:3609   */\n      dup3\n        /* \"#utility.yul\":3586:3610   */\n      tag_115\n      jump\t// in\n    tag_118:\n        /* \"#utility.yul\":3575:3610   */\n      swap1\n      pop\n        /* \"#utility.yul\":3512:3616   */\n      swap2\n      swap1\n      pop\n      jump\t// out\n        /* \"#utility.yul\":3622:3748   */\n    tag_115:\n        /* \"#utility.yul\":3659:3666   */\n      0x00\n        /* \"#utility.yul\":3699:3741   */\n      0xffffffffffffffffffffffffffffffffffffffff\n        /* \"#utility.yul\":3692:3697   */\n      dup3\n        /* \"#utility.yul\":3688:3742   */\n      and\n        /* \"#utility.yul\":3677:3742   */\n      swap1\n      pop\n        /* \"#utility.yul\":3622:3748   */\n      swap2\n      swap1\n      pop\n      jump\t// out\n        /* \"#utility.yul\":3754:3831   */\n    tag_94:\n        /* \"#utility.yul\":3791:3798   */\n      0x00\n        /* \"#utility.yul\":3820:3825   */\n      dup2\n        /* \"#utility.yul\":3809:3825   */\n      swap1\n      pop\n        /* \"#utility.yul\":3754:3831   */\n      swap2\n      swap1\n      pop\n      jump\t// out\n        /* \"#utility.yul\":3837:4017   */\n    tag_106:\n        /* \"#utility.yul\":3885:3962   */\n      0x4e487b7100000000000000000000000000000000000000000000000000000000\n        /* \"#utility.yul\":3882:3883   */\n      0x00\n        /* \"#utility.yul\":3875:3963   */\n      mstore\n        /* \"#utility.yul\":3982:3986   */\n      0x11\n        /* \"#utility.yul\":3979:3980   */\n      0x04\n        /* \"#utility.yul\":3972:3987   */\n      mstore\n        /* \"#utility.yul\":4006:4010   */\n      0x24\n        /* \"#utility.yul\":4003:4004   */\n      0x00\n        /* \"#utility.yul\":3996:4011   */\n      revert\n        /* \"#utility.yul\":4146:4263   */\n    tag_74:\n        /* \"#utility.yul\":4255:4256   */\n      0x00\n        /* \"#utility.yul\":4252:4253   */\n      dup1\n        /* \"#utility.yul\":4245:4257   */\n      revert\n        /* \"#utility.yul\":4269:4391   */\n    tag_62:\n        /* \"#utility.yul\":4342:4366   */\n      tag_126\n        /* \"#utility.yul\":4360:4365   */\n      dup2\n        /* \"#utility.yul\":4342:4366   */\n      tag_112\n      jump\t// in\n    tag_126:\n        /* \"#utility.yul\":4335:4340   */\n      dup2\n        /* \"#utility.yul\":4332:4367   */\n      eq\n        /* \"#utility.yul\":4322:4385   */\n      tag_127\n      jumpi\n        /* \"#utility.yul\":4381:4382   */\n      0x00\n        /* \"#utility.yul\":4378:4379   */\n      dup1\n        /* \"#utility.yul\":4371:4383   */\n      revert\n        /* \"#utility.yul\":4322:4385   */\n    tag_127:\n        /* \"#utility.yul\":4269:4391   */\n      pop\n      jump\t// out\n        /* \"#utility.yul\":4397:4535   */\n    tag_66:\n        /* \"#utility.yul\":4478:4510   */\n      tag_129\n        /* \"#utility.yul\":4504:4509   */\n      dup2\n        /* \"#utility.yul\":4478:4510   */\n      tag_116\n      jump\t// in\n    tag_129:\n        /* \"#utility.yul\":4471:4476   */\n      dup2\n        /* \"#utility.yul\":4468:4511   */\n      eq\n        /* \"#utility.yul\":4458:4529   */\n      tag_130\n      jumpi\n        /* \"#utility.yul\":4525:4526   */\n      0x00\n        /* \"#utility.yul\":4522:4523   */\n      dup1\n        /* \"#utility.yul\":4515:4527   */\n      revert\n        /* \"#utility.yul\":4458:4529   */\n    tag_130:\n        /* \"#utility.yul\":4397:4535   */\n      pop\n      jump\t// out\n        /* \"#utility.yul\":4541:4663   */\n    tag_70:\n        /* \"#utility.yul\":4614:4638   */\n      tag_132\n        /* \"#utility.yul\":4632:4637   */\n      dup2\n        /* \"#utility.yul\":4614:4638   */\n      tag_94\n      jump\t// in\n    tag_132:\n        /* \"#utility.yul\":4607:4612   */\n      dup2\n        /* \"#utility.yul\":4604:4639   */\n      eq\n        /* \"#utility.yul\":4594:4657   */\n      tag_133\n      jumpi\n        /* \"#utility.yul\":4653:4654   */\n      0x00\n        /* \"#utility.yul\":4650:4651   */\n      dup1\n        /* \"#utility.yul\":4643:4655   */\n      revert\n        /* \"#utility.yul\":4594:4657   */\n    tag_133:\n        /* \"#utility.yul\":4541:4663   */\n      pop\n      jump\t// out\n\n    auxdata: 0xa2646970667358221220b2784970323ce6a3f12099ad1d520492ab603cd8b1a6ab3d21ea0807daaff96e64736f6c63430008070033\n}\n",
				"bytecode": {
					"linkReferences": {},
					"object": "6080604052336000806101000a81548173ffffffffffffffffffffffffffffffffffffffff021916908373ffffffffffffffffffffffffffffffffffffffff1602179055506001600260003373ffffffffffffffffffffffffffffffffffffffff1673ffffffffffffffffffffffffffffffffffffffff1681526020019081526020016000208190555034600160003373ffffffffffffffffffffffffffffffffffffffff1673ffffffffffffffffffffffffffffffffffffffff16815260200190815260200160002060000181905550610a82806100df6000396000f3fe6080604052600436106100555760003560e01c80631aa3a0081461005a5780632109dc88146100645780632ec2c246146100805780636d1954e0146100a9578063a3aa1913146100d2578063c8c01a5514610111575b600080fd5b61006261013a565b005b61007e600480360381019061007991906107f5565b6101ce565b005b34801561008c57600080fd5b506100a760048036038101906100a291906107f5565b610398565b005b3480156100b557600080fd5b506100d060048036038101906100cb9190610862565b610509565b005b3480156100de57600080fd5b506100f960048036038101906100f491906107c8565b610634565b604051610108939291906108c4565b60405180910390f35b34801561011d57600080fd5b5061013860048036038101906101339190610822565b61065e565b005b60003390506001600260008373ffffffffffffffffffffffffffffffffffffffff1673ffffffffffffffffffffffffffffffffffffffff1681526020019081526020016000208190555034600160003373ffffffffffffffffffffffffffffffffffffffff1673ffffffffffffffffffffffffffffffffffffffff1681526020019081526020016000206000018190555050565b6001600260003373ffffffffffffffffffffffffffffffffffffffff1673ffffffffffffffffffffffffffffffffffffffff168152602001908152602001600020541461021a57600080fd5b6000339050600034905080600160008573ffffffffffffffffffffffffffffffffffffffff1673ffffffffffffffffffffffffffffffffffffffff1681526020019081526020016000206000015461027291906108fb565b600160008573ffffffffffffffffffffffffffffffffffffffff1673ffffffffffffffffffffffffffffffffffffffff1681526020019081526020016000206000018190555080600160008473ffffffffffffffffffffffffffffffffffffffff1673ffffffffffffffffffffffffffffffffffffffff168152602001908152602001600020600001546103069190610951565b600160008473ffffffffffffffffffffffffffffffffffffffff1673ffffffffffffffffffffffffffffffffffffffff168152602001908152602001600020600001819055508273ffffffffffffffffffffffffffffffffffffffff166108fc829081150290604051600060405180830381858888f19350505050158015610392573d6000803e3d6000fd5b50505050565b60008054906101000a900473ffffffffffffffffffffffffffffffffffffffff1673ffffffffffffffffffffffffffffffffffffffff163373ffffffffffffffffffffffffffffffffffffffff16146103f057600080fd5b6000600260008373ffffffffffffffffffffffffffffffffffffffff1673ffffffffffffffffffffffffffffffffffffffff168152602001908152602001600020819055508073ffffffffffffffffffffffffffffffffffffffff166108fc600160008473ffffffffffffffffffffffffffffffffffffffff1673ffffffffffffffffffffffffffffffffffffffff168152602001908152602001600020600001549081150290604051600060405180830381858888f193505050501580156104bd573d6000803e3d6000fd5b506000600160008373ffffffffffffffffffffffffffffffffffffffff1673ffffffffffffffffffffffffffffffffffffffff1681526020019081526020016000206000018190555050565b6001600260003373ffffffffffffffffffffffffffffffffffffffff1673ffffffffffffffffffffffffffffffffffffffff168152602001908152602001600020541461055557600080fd5b6001600260008573ffffffffffffffffffffffffffffffffffffffff1673ffffffffffffffffffffffffffffffffffffffff16815260200190815260200160002054146105a157600080fd5b80600160003373ffffffffffffffffffffffffffffffffffffffff1673ffffffffffffffffffffffffffffffffffffffff1681526020019081526020016000206001018190555081600160008573ffffffffffffffffffffffffffffffffffffffff1673ffffffffffffffffffffffffffffffffffffffff16815260200190815260200160002060020181905550505050565b60016020528060005260406000206000915090508060000154908060010154908060020154905083565b6001600260003373ffffffffffffffffffffffffffffffffffffffff1673ffffffffffffffffffffffffffffffffffffffff16815260200190815260200160002054146106aa57600080fd5b6001600260008473ffffffffffffffffffffffffffffffffffffffff1673ffffffffffffffffffffffffffffffffffffffff16815260200190815260200160002054146106f657600080fd5b6000600160003373ffffffffffffffffffffffffffffffffffffffff1673ffffffffffffffffffffffffffffffffffffffff1681526020019081526020016000206001018190555080600160008473ffffffffffffffffffffffffffffffffffffffff1673ffffffffffffffffffffffffffffffffffffffff168152602001908152602001600020600201819055505050565b60008135905061079881610a07565b92915050565b6000813590506107ad81610a1e565b92915050565b6000813590506107c281610a35565b92915050565b6000602082840312156107de576107dd610a02565b5b60006107ec84828501610789565b91505092915050565b60006020828403121561080b5761080a610a02565b5b60006108198482850161079e565b91505092915050565b6000806040838503121561083957610838610a02565b5b600061084785828601610789565b9250506020610858858286016107b3565b9150509250929050565b60008060006060848603121561087b5761087a610a02565b5b600061088986828701610789565b935050602061089a868287016107b3565b92505060406108ab868287016107b3565b9150509250925092565b6108be816109c9565b82525050565b60006060820190506108d960008301866108b5565b6108e660208301856108b5565b6108f360408301846108b5565b949350505050565b6000610906826109c9565b9150610911836109c9565b9250827fffffffffffffffffffffffffffffffffffffffffffffffffffffffffffffffff03821115610946576109456109d3565b5b828201905092915050565b600061095c826109c9565b9150610967836109c9565b92508282101561097a576109796109d3565b5b828203905092915050565b6000610990826109a9565b9050919050565b60006109a2826109a9565b9050919050565b600073ffffffffffffffffffffffffffffffffffffffff82169050919050565b6000819050919050565b7f4e487b7100000000000000000000000000000000000000000000000000000000600052601160045260246000fd5b600080fd5b610a1081610985565b8114610a1b57600080fd5b50565b610a2781610997565b8114610a3257600080fd5b50565b610a3e816109c9565b8114610a4957600080fd5b5056fea2646970667358221220b2784970323ce6a3f12099ad1d520492ab603cd8b1a6ab3d21ea0807daaff96e64736f6c63430008070033",
					"opcodes": "PUSH1 0x80 PUSH1 0x40 MSTORE CALLER PUSH1 0x0 DUP1 PUSH2 0x100 EXP DUP2 SLOAD DUP2 PUSH20 0xFFFFFFFFFFFFFFFFFFFFFFFFFFFFFFFFFFFFFFFF MUL NOT AND SWAP1 DUP4 PUSH20 0xFFFFFFFFFFFFFFFFFFFFFFFFFFFFFFFFFFFFFFFF AND MUL OR SWAP1 SSTORE POP PUSH1 0x1 PUSH1 0x2 PUSH1 0x0 CALLER PUSH20 0xFFFFFFFFFFFFFFFFFFFFFFFFFFFFFFFFFFFFFFFF AND PUSH20 0xFFFFFFFFFFFFFFFFFFFFFFFFFFFFFFFFFFFFFFFF AND DUP2 MSTORE PUSH1 0x20 ADD SWAP1 DUP2 MSTORE PUSH1 0x20 ADD PUSH1 0x0 KECCAK256 DUP2 SWAP1 SSTORE POP CALLVALUE PUSH1 0x1 PUSH1 0x0 CALLER PUSH20 0xFFFFFFFFFFFFFFFFFFFFFFFFFFFFFFFFFFFFFFFF AND PUSH20 0xFFFFFFFFFFFFFFFFFFFFFFFFFFFFFFFFFFFFFFFF AND DUP2 MSTORE PUSH1 0x20 ADD SWAP1 DUP2 MSTORE PUSH1 0x20 ADD PUSH1 0x0 KECCAK256 PUSH1 0x0 ADD DUP2 SWAP1 SSTORE POP PUSH2 0xA82 DUP1 PUSH2 0xDF PUSH1 0x0 CODECOPY PUSH1 0x0 RETURN INVALID PUSH1 0x80 PUSH1 0x40 MSTORE PUSH1 0x4 CALLDATASIZE LT PUSH2 0x55 JUMPI PUSH1 0x0 CALLDATALOAD PUSH1 0xE0 SHR DUP1 PUSH4 0x1AA3A008 EQ PUSH2 0x5A JUMPI DUP1 PUSH4 0x2109DC88 EQ PUSH2 0x64 JUMPI DUP1 PUSH4 0x2EC2C246 EQ PUSH2 0x80 JUMPI DUP1 PUSH4 0x6D1954E0 EQ PUSH2 0xA9 JUMPI DUP1 PUSH4 0xA3AA1913 EQ PUSH2 0xD2 JUMPI DUP1 PUSH4 0xC8C01A55 EQ PUSH2 0x111 JUMPI JUMPDEST PUSH1 0x0 DUP1 REVERT JUMPDEST PUSH2 0x62 PUSH2 0x13A JUMP JUMPDEST STOP JUMPDEST PUSH2 0x7E PUSH1 0x4 DUP1 CALLDATASIZE SUB DUP2 ADD SWAP1 PUSH2 0x79 SWAP2 SWAP1 PUSH2 0x7F5 JUMP JUMPDEST PUSH2 0x1CE JUMP JUMPDEST STOP JUMPDEST CALLVALUE DUP1 ISZERO PUSH2 0x8C JUMPI PUSH1 0x0 DUP1 REVERT JUMPDEST POP PUSH2 0xA7 PUSH1 0x4 DUP1 CALLDATASIZE SUB DUP2 ADD SWAP1 PUSH2 0xA2 SWAP2 SWAP1 PUSH2 0x7F5 JUMP JUMPDEST PUSH2 0x398 JUMP JUMPDEST STOP JUMPDEST CALLVALUE DUP1 ISZERO PUSH2 0xB5 JUMPI PUSH1 0x0 DUP1 REVERT JUMPDEST POP PUSH2 0xD0 PUSH1 0x4 DUP1 CALLDATASIZE SUB DUP2 ADD SWAP1 PUSH2 0xCB SWAP2 SWAP1 PUSH2 0x862 JUMP JUMPDEST PUSH2 0x509 JUMP JUMPDEST STOP JUMPDEST CALLVALUE DUP1 ISZERO PUSH2 0xDE JUMPI PUSH1 0x0 DUP1 REVERT JUMPDEST POP PUSH2 0xF9 PUSH1 0x4 DUP1 CALLDATASIZE SUB DUP2 ADD SWAP1 PUSH2 0xF4 SWAP2 SWAP1 PUSH2 0x7C8 JUMP JUMPDEST PUSH2 0x634 JUMP JUMPDEST PUSH1 0x40 MLOAD PUSH2 0x108 SWAP4 SWAP3 SWAP2 SWAP1 PUSH2 0x8C4 JUMP JUMPDEST PUSH1 0x40 MLOAD DUP1 SWAP2 SUB SWAP1 RETURN JUMPDEST CALLVALUE DUP1 ISZERO PUSH2 0x11D JUMPI PUSH1 0x0 DUP1 REVERT JUMPDEST POP PUSH2 0x138 PUSH1 0x4 DUP1 CALLDATASIZE SUB DUP2 ADD SWAP1 PUSH2 0x133 SWAP2 SWAP1 PUSH2 0x822 JUMP JUMPDEST PUSH2 0x65E JUMP JUMPDEST STOP JUMPDEST PUSH1 0x0 CALLER SWAP1 POP PUSH1 0x1 PUSH1 0x2 PUSH1 0x0 DUP4 PUSH20 0xFFFFFFFFFFFFFFFFFFFFFFFFFFFFFFFFFFFFFFFF AND PUSH20 0xFFFFFFFFFFFFFFFFFFFFFFFFFFFFFFFFFFFFFFFF AND DUP2 MSTORE PUSH1 0x20 ADD SWAP1 DUP2 MSTORE PUSH1 0x20 ADD PUSH1 0x0 KECCAK256 DUP2 SWAP1 SSTORE POP CALLVALUE PUSH1 0x1 PUSH1 0x0 CALLER PUSH20 0xFFFFFFFFFFFFFFFFFFFFFFFFFFFFFFFFFFFFFFFF AND PUSH20 0xFFFFFFFFFFFFFFFFFFFFFFFFFFFFFFFFFFFFFFFF AND DUP2 MSTORE PUSH1 0x20 ADD SWAP1 DUP2 MSTORE PUSH1 0x20 ADD PUSH1 0x0 KECCAK256 PUSH1 0x0 ADD DUP2 SWAP1 SSTORE POP POP JUMP JUMPDEST PUSH1 0x1 PUSH1 0x2 PUSH1 0x0 CALLER PUSH20 0xFFFFFFFFFFFFFFFFFFFFFFFFFFFFFFFFFFFFFFFF AND PUSH20 0xFFFFFFFFFFFFFFFFFFFFFFFFFFFFFFFFFFFFFFFF AND DUP2 MSTORE PUSH1 0x20 ADD SWAP1 DUP2 MSTORE PUSH1 0x20 ADD PUSH1 0x0 KECCAK256 SLOAD EQ PUSH2 0x21A JUMPI PUSH1 0x0 DUP1 REVERT JUMPDEST PUSH1 0x0 CALLER SWAP1 POP PUSH1 0x0 CALLVALUE SWAP1 POP DUP1 PUSH1 0x1 PUSH1 0x0 DUP6 PUSH20 0xFFFFFFFFFFFFFFFFFFFFFFFFFFFFFFFFFFFFFFFF AND PUSH20 0xFFFFFFFFFFFFFFFFFFFFFFFFFFFFFFFFFFFFFFFF AND DUP2 MSTORE PUSH1 0x20 ADD SWAP1 DUP2 MSTORE PUSH1 0x20 ADD PUSH1 0x0 KECCAK256 PUSH1 0x0 ADD SLOAD PUSH2 0x272 SWAP2 SWAP1 PUSH2 0x8FB JUMP JUMPDEST PUSH1 0x1 PUSH1 0x0 DUP6 PUSH20 0xFFFFFFFFFFFFFFFFFFFFFFFFFFFFFFFFFFFFFFFF AND PUSH20 0xFFFFFFFFFFFFFFFFFFFFFFFFFFFFFFFFFFFFFFFF AND DUP2 MSTORE PUSH1 0x20 ADD SWAP1 DUP2 MSTORE PUSH1 0x20 ADD PUSH1 0x0 KECCAK256 PUSH1 0x0 ADD DUP2 SWAP1 SSTORE POP DUP1 PUSH1 0x1 PUSH1 0x0 DUP5 PUSH20 0xFFFFFFFFFFFFFFFFFFFFFFFFFFFFFFFFFFFFFFFF AND PUSH20 0xFFFFFFFFFFFFFFFFFFFFFFFFFFFFFFFFFFFFFFFF AND DUP2 MSTORE PUSH1 0x20 ADD SWAP1 DUP2 MSTORE PUSH1 0x20 ADD PUSH1 0x0 KECCAK256 PUSH1 0x0 ADD SLOAD PUSH2 0x306 SWAP2 SWAP1 PUSH2 0x951 JUMP JUMPDEST PUSH1 0x1 PUSH1 0x0 DUP5 PUSH20 0xFFFFFFFFFFFFFFFFFFFFFFFFFFFFFFFFFFFFFFFF AND PUSH20 0xFFFFFFFFFFFFFFFFFFFFFFFFFFFFFFFFFFFFFFFF AND DUP2 MSTORE PUSH1 0x20 ADD SWAP1 DUP2 MSTORE PUSH1 0x20 ADD PUSH1 0x0 KECCAK256 PUSH1 0x0 ADD DUP2 SWAP1 SSTORE POP DUP3 PUSH20 0xFFFFFFFFFFFFFFFFFFFFFFFFFFFFFFFFFFFFFFFF AND PUSH2 0x8FC DUP3 SWAP1 DUP2 ISZERO MUL SWAP1 PUSH1 0x40 MLOAD PUSH1 0x0 PUSH1 0x40 MLOAD DUP1 DUP4 SUB DUP2 DUP6 DUP9 DUP9 CALL SWAP4 POP POP POP POP ISZERO DUP1 ISZERO PUSH2 0x392 JUMPI RETURNDATASIZE PUSH1 0x0 DUP1 RETURNDATACOPY RETURNDATASIZE PUSH1 0x0 REVERT JUMPDEST POP POP POP POP JUMP JUMPDEST PUSH1 0x0 DUP1 SLOAD SWAP1 PUSH2 0x100 EXP SWAP1 DIV PUSH20 0xFFFFFFFFFFFFFFFFFFFFFFFFFFFFFFFFFFFFFFFF AND PUSH20 0xFFFFFFFFFFFFFFFFFFFFFFFFFFFFFFFFFFFFFFFF AND CALLER PUSH20 0xFFFFFFFFFFFFFFFFFFFFFFFFFFFFFFFFFFFFFFFF AND EQ PUSH2 0x3F0 JUMPI PUSH1 0x0 DUP1 REVERT JUMPDEST PUSH1 0x0 PUSH1 0x2 PUSH1 0x0 DUP4 PUSH20 0xFFFFFFFFFFFFFFFFFFFFFFFFFFFFFFFFFFFFFFFF AND PUSH20 0xFFFFFFFFFFFFFFFFFFFFFFFFFFFFFFFFFFFFFFFF AND DUP2 MSTORE PUSH1 0x20 ADD SWAP1 DUP2 MSTORE PUSH1 0x20 ADD PUSH1 0x0 KECCAK256 DUP2 SWAP1 SSTORE POP DUP1 PUSH20 0xFFFFFFFFFFFFFFFFFFFFFFFFFFFFFFFFFFFFFFFF AND PUSH2 0x8FC PUSH1 0x1 PUSH1 0x0 DUP5 PUSH20 0xFFFFFFFFFFFFFFFFFFFFFFFFFFFFFFFFFFFFFFFF AND PUSH20 0xFFFFFFFFFFFFFFFFFFFFFFFFFFFFFFFFFFFFFFFF AND DUP2 MSTORE PUSH1 0x20 ADD SWAP1 DUP2 MSTORE PUSH1 0x20 ADD PUSH1 0x0 KECCAK256 PUSH1 0x0 ADD SLOAD SWAP1 DUP2 ISZERO MUL SWAP1 PUSH1 0x40 MLOAD PUSH1 0x0 PUSH1 0x40 MLOAD DUP1 DUP4 SUB DUP2 DUP6 DUP9 DUP9 CALL SWAP4 POP POP POP POP ISZERO DUP1 ISZERO PUSH2 0x4BD JUMPI RETURNDATASIZE PUSH1 0x0 DUP1 RETURNDATACOPY RETURNDATASIZE PUSH1 0x0 REVERT JUMPDEST POP PUSH1 0x0 PUSH1 0x1 PUSH1 0x0 DUP4 PUSH20 0xFFFFFFFFFFFFFFFFFFFFFFFFFFFFFFFFFFFFFFFF AND PUSH20 0xFFFFFFFFFFFFFFFFFFFFFFFFFFFFFFFFFFFFFFFF AND DUP2 MSTORE PUSH1 0x20 ADD SWAP1 DUP2 MSTORE PUSH1 0x20 ADD PUSH1 0x0 KECCAK256 PUSH1 0x0 ADD DUP2 SWAP1 SSTORE POP POP JUMP JUMPDEST PUSH1 0x1 PUSH1 0x2 PUSH1 0x0 CALLER PUSH20 0xFFFFFFFFFFFFFFFFFFFFFFFFFFFFFFFFFFFFFFFF AND PUSH20 0xFFFFFFFFFFFFFFFFFFFFFFFFFFFFFFFFFFFFFFFF AND DUP2 MSTORE PUSH1 0x20 ADD SWAP1 DUP2 MSTORE PUSH1 0x20 ADD PUSH1 0x0 KECCAK256 SLOAD EQ PUSH2 0x555 JUMPI PUSH1 0x0 DUP1 REVERT JUMPDEST PUSH1 0x1 PUSH1 0x2 PUSH1 0x0 DUP6 PUSH20 0xFFFFFFFFFFFFFFFFFFFFFFFFFFFFFFFFFFFFFFFF AND PUSH20 0xFFFFFFFFFFFFFFFFFFFFFFFFFFFFFFFFFFFFFFFF AND DUP2 MSTORE PUSH1 0x20 ADD SWAP1 DUP2 MSTORE PUSH1 0x20 ADD PUSH1 0x0 KECCAK256 SLOAD EQ PUSH2 0x5A1 JUMPI PUSH1 0x0 DUP1 REVERT JUMPDEST DUP1 PUSH1 0x1 PUSH1 0x0 CALLER PUSH20 0xFFFFFFFFFFFFFFFFFFFFFFFFFFFFFFFFFFFFFFFF AND PUSH20 0xFFFFFFFFFFFFFFFFFFFFFFFFFFFFFFFFFFFFFFFF AND DUP2 MSTORE PUSH1 0x20 ADD SWAP1 DUP2 MSTORE PUSH1 0x20 ADD PUSH1 0x0 KECCAK256 PUSH1 0x1 ADD DUP2 SWAP1 SSTORE POP DUP2 PUSH1 0x1 PUSH1 0x0 DUP6 PUSH20 0xFFFFFFFFFFFFFFFFFFFFFFFFFFFFFFFFFFFFFFFF AND PUSH20 0xFFFFFFFFFFFFFFFFFFFFFFFFFFFFFFFFFFFFFFFF AND DUP2 MSTORE PUSH1 0x20 ADD SWAP1 DUP2 MSTORE PUSH1 0x20 ADD PUSH1 0x0 KECCAK256 PUSH1 0x2 ADD DUP2 SWAP1 SSTORE POP POP POP POP JUMP JUMPDEST PUSH1 0x1 PUSH1 0x20 MSTORE DUP1 PUSH1 0x0 MSTORE PUSH1 0x40 PUSH1 0x0 KECCAK256 PUSH1 0x0 SWAP2 POP SWAP1 POP DUP1 PUSH1 0x0 ADD SLOAD SWAP1 DUP1 PUSH1 0x1 ADD SLOAD SWAP1 DUP1 PUSH1 0x2 ADD SLOAD SWAP1 POP DUP4 JUMP JUMPDEST PUSH1 0x1 PUSH1 0x2 PUSH1 0x0 CALLER PUSH20 0xFFFFFFFFFFFFFFFFFFFFFFFFFFFFFFFFFFFFFFFF AND PUSH20 0xFFFFFFFFFFFFFFFFFFFFFFFFFFFFFFFFFFFFFFFF AND DUP2 MSTORE PUSH1 0x20 ADD SWAP1 DUP2 MSTORE PUSH1 0x20 ADD PUSH1 0x0 KECCAK256 SLOAD EQ PUSH2 0x6AA JUMPI PUSH1 0x0 DUP1 REVERT JUMPDEST PUSH1 0x1 PUSH1 0x2 PUSH1 0x0 DUP5 PUSH20 0xFFFFFFFFFFFFFFFFFFFFFFFFFFFFFFFFFFFFFFFF AND PUSH20 0xFFFFFFFFFFFFFFFFFFFFFFFFFFFFFFFFFFFFFFFF AND DUP2 MSTORE PUSH1 0x20 ADD SWAP1 DUP2 MSTORE PUSH1 0x20 ADD PUSH1 0x0 KECCAK256 SLOAD EQ PUSH2 0x6F6 JUMPI PUSH1 0x0 DUP1 REVERT JUMPDEST PUSH1 0x0 PUSH1 0x1 PUSH1 0x0 CALLER PUSH20 0xFFFFFFFFFFFFFFFFFFFFFFFFFFFFFFFFFFFFFFFF AND PUSH20 0xFFFFFFFFFFFFFFFFFFFFFFFFFFFFFFFFFFFFFFFF AND DUP2 MSTORE PUSH1 0x20 ADD SWAP1 DUP2 MSTORE PUSH1 0x20 ADD PUSH1 0x0 KECCAK256 PUSH1 0x1 ADD DUP2 SWAP1 SSTORE POP DUP1 PUSH1 0x1 PUSH1 0x0 DUP5 PUSH20 0xFFFFFFFFFFFFFFFFFFFFFFFFFFFFFFFFFFFFFFFF AND PUSH20 0xFFFFFFFFFFFFFFFFFFFFFFFFFFFFFFFFFFFFFFFF AND DUP2 MSTORE PUSH1 0x20 ADD SWAP1 DUP2 MSTORE PUSH1 0x20 ADD PUSH1 0x0 KECCAK256 PUSH1 0x2 ADD DUP2 SWAP1 SSTORE POP POP POP JUMP JUMPDEST PUSH1 0x0 DUP2 CALLDATALOAD SWAP1 POP PUSH2 0x798 DUP2 PUSH2 0xA07 JUMP JUMPDEST SWAP3 SWAP2 POP POP JUMP JUMPDEST PUSH1 0x0 DUP2 CALLDATALOAD SWAP1 POP PUSH2 0x7AD DUP2 PUSH2 0xA1E JUMP JUMPDEST SWAP3 SWAP2 POP POP JUMP JUMPDEST PUSH1 0x0 DUP2 CALLDATALOAD SWAP1 POP PUSH2 0x7C2 DUP2 PUSH2 0xA35 JUMP JUMPDEST SWAP3 SWAP2 POP POP JUMP JUMPDEST PUSH1 0x0 PUSH1 0x20 DUP3 DUP5 SUB SLT ISZERO PUSH2 0x7DE JUMPI PUSH2 0x7DD PUSH2 0xA02 JUMP JUMPDEST JUMPDEST PUSH1 0x0 PUSH2 0x7EC DUP5 DUP3 DUP6 ADD PUSH2 0x789 JUMP JUMPDEST SWAP2 POP POP SWAP3 SWAP2 POP POP JUMP JUMPDEST PUSH1 0x0 PUSH1 0x20 DUP3 DUP5 SUB SLT ISZERO PUSH2 0x80B JUMPI PUSH2 0x80A PUSH2 0xA02 JUMP JUMPDEST JUMPDEST PUSH1 0x0 PUSH2 0x819 DUP5 DUP3 DUP6 ADD PUSH2 0x79E JUMP JUMPDEST SWAP2 POP POP SWAP3 SWAP2 POP POP JUMP JUMPDEST PUSH1 0x0 DUP1 PUSH1 0x40 DUP4 DUP6 SUB SLT ISZERO PUSH2 0x839 JUMPI PUSH2 0x838 PUSH2 0xA02 JUMP JUMPDEST JUMPDEST PUSH1 0x0 PUSH2 0x847 DUP6 DUP3 DUP7 ADD PUSH2 0x789 JUMP JUMPDEST SWAP3 POP POP PUSH1 0x20 PUSH2 0x858 DUP6 DUP3 DUP7 ADD PUSH2 0x7B3 JUMP JUMPDEST SWAP2 POP POP SWAP3 POP SWAP3 SWAP1 POP JUMP JUMPDEST PUSH1 0x0 DUP1 PUSH1 0x0 PUSH1 0x60 DUP5 DUP7 SUB SLT ISZERO PUSH2 0x87B JUMPI PUSH2 0x87A PUSH2 0xA02 JUMP JUMPDEST JUMPDEST PUSH1 0x0 PUSH2 0x889 DUP7 DUP3 DUP8 ADD PUSH2 0x789 JUMP JUMPDEST SWAP4 POP POP PUSH1 0x20 PUSH2 0x89A DUP7 DUP3 DUP8 ADD PUSH2 0x7B3 JUMP JUMPDEST SWAP3 POP POP PUSH1 0x40 PUSH2 0x8AB DUP7 DUP3 DUP8 ADD PUSH2 0x7B3 JUMP JUMPDEST SWAP2 POP POP SWAP3 POP SWAP3 POP SWAP3 JUMP JUMPDEST PUSH2 0x8BE DUP2 PUSH2 0x9C9 JUMP JUMPDEST DUP3 MSTORE POP POP JUMP JUMPDEST PUSH1 0x0 PUSH1 0x60 DUP3 ADD SWAP1 POP PUSH2 0x8D9 PUSH1 0x0 DUP4 ADD DUP7 PUSH2 0x8B5 JUMP JUMPDEST PUSH2 0x8E6 PUSH1 0x20 DUP4 ADD DUP6 PUSH2 0x8B5 JUMP JUMPDEST PUSH2 0x8F3 PUSH1 0x40 DUP4 ADD DUP5 PUSH2 0x8B5 JUMP JUMPDEST SWAP5 SWAP4 POP POP POP POP JUMP JUMPDEST PUSH1 0x0 PUSH2 0x906 DUP3 PUSH2 0x9C9 JUMP JUMPDEST SWAP2 POP PUSH2 0x911 DUP4 PUSH2 0x9C9 JUMP JUMPDEST SWAP3 POP DUP3 PUSH32 0xFFFFFFFFFFFFFFFFFFFFFFFFFFFFFFFFFFFFFFFFFFFFFFFFFFFFFFFFFFFFFFFF SUB DUP3 GT ISZERO PUSH2 0x946 JUMPI PUSH2 0x945 PUSH2 0x9D3 JUMP JUMPDEST JUMPDEST DUP3 DUP3 ADD SWAP1 POP SWAP3 SWAP2 POP POP JUMP JUMPDEST PUSH1 0x0 PUSH2 0x95C DUP3 PUSH2 0x9C9 JUMP JUMPDEST SWAP2 POP PUSH2 0x967 DUP4 PUSH2 0x9C9 JUMP JUMPDEST SWAP3 POP DUP3 DUP3 LT ISZERO PUSH2 0x97A JUMPI PUSH2 0x979 PUSH2 0x9D3 JUMP JUMPDEST JUMPDEST DUP3 DUP3 SUB SWAP1 POP SWAP3 SWAP2 POP POP JUMP JUMPDEST PUSH1 0x0 PUSH2 0x990 DUP3 PUSH2 0x9A9 JUMP JUMPDEST SWAP1 POP SWAP2 SWAP1 POP JUMP JUMPDEST PUSH1 0x0 PUSH2 0x9A2 DUP3 PUSH2 0x9A9 JUMP JUMPDEST SWAP1 POP SWAP2 SWAP1 POP JUMP JUMPDEST PUSH1 0x0 PUSH20 0xFFFFFFFFFFFFFFFFFFFFFFFFFFFFFFFFFFFFFFFF DUP3 AND SWAP1 POP SWAP2 SWAP1 POP JUMP JUMPDEST PUSH1 0x0 DUP2 SWAP1 POP SWAP2 SWAP1 POP JUMP JUMPDEST PUSH32 0x4E487B7100000000000000000000000000000000000000000000000000000000 PUSH1 0x0 MSTORE PUSH1 0x11 PUSH1 0x4 MSTORE PUSH1 0x24 PUSH1 0x0 REVERT JUMPDEST PUSH1 0x0 DUP1 REVERT JUMPDEST PUSH2 0xA10 DUP2 PUSH2 0x985 JUMP JUMPDEST DUP2 EQ PUSH2 0xA1B JUMPI PUSH1 0x0 DUP1 REVERT JUMPDEST POP JUMP JUMPDEST PUSH2 0xA27 DUP2 PUSH2 0x997 JUMP JUMPDEST DUP2 EQ PUSH2 0xA32 JUMPI PUSH1 0x0 DUP1 REVERT JUMPDEST POP JUMP JUMPDEST PUSH2 0xA3E DUP2 PUSH2 0x9C9 JUMP JUMPDEST DUP2 EQ PUSH2 0xA49 JUMPI PUSH1 0x0 DUP1 REVERT JUMPDEST POP JUMP INVALID LOG2 PUSH5 0x6970667358 0x22 SLT KECCAK256 0xB2 PUSH25 0x4970323CE6A3F12099AD1D520492AB603CD8B1A6AB3D21EA08 SMOD 0xDA 0xAF 0xF9 PUSH15 0x64736F6C6343000807003300000000 "
				},
				"gasEstimates": {
					"creation": {
						"codeDepositCost": "538000",
						"executionCost": "69228",
						"totalCost": "607228"
					},
					"external": {
						"balanceDetails(address)": "infinite",
						"register()": "44522",
						"request(address,uint256)": "32460",
						"response(address,uint256,uint256)": "infinite",
						"settlePayment(address)": "infinite",
						"unregister(address)": "infinite"
					}
				},
				"methodIdentifiers": {
					"balanceDetails(address)": "a3aa1913",
					"register()": "1aa3a008",
					"request(address,uint256)": "c8c01a55",
					"response(address,uint256,uint256)": "6d1954e0",
					"settlePayment(address)": "2109dc88",
					"unregister(address)": "2ec2c246"
				}
			},
			"storageLayout": {
				"storage": [
					{
						"astId": 3,
						"contract": "contracts/ch02/Airlines.sol:Airlines",
						"label": "chairperson",
						"offset": 0,
						"slot": "0",
						"type": "t_address"
					},
					{
						"astId": 15,
						"contract": "contracts/ch02/Airlines.sol:Airlines",
						"label": "balanceDetails",
						"offset": 0,
						"slot": "1",
						"type": "t_mapping(t_address,t_struct(details)10_storage)"
					},
					{
						"astId": 19,
						"contract": "contracts/ch02/Airlines.sol:Airlines",
						"label": "membership",
						"offset": 0,
						"slot": "2",
						"type": "t_mapping(t_address,t_uint256)"
					}
				],
				"types": {
					"t_address": {
						"encoding": "inplace",
						"label": "address",
						"numberOfBytes": "20"
					},
					"t_mapping(t_address,t_struct(details)10_storage)": {
						"encoding": "mapping",
						"key": "t_address",
						"label": "mapping(address => struct Airlines.details)",
						"numberOfBytes": "32",
						"value": "t_struct(details)10_storage"
					},
					"t_mapping(t_address,t_uint256)": {
						"encoding": "mapping",
						"key": "t_address",
						"label": "mapping(address => uint256)",
						"numberOfBytes": "32",
						"value": "t_uint256"
					},
					"t_struct(details)10_storage": {
						"encoding": "inplace",
						"label": "struct Airlines.details",
						"members": [
							{
								"astId": 5,
								"contract": "contracts/ch02/Airlines.sol:Airlines",
								"label": "escrow",
								"offset": 0,
								"slot": "0",
								"type": "t_uint256"
							},
							{
								"astId": 7,
								"contract": "contracts/ch02/Airlines.sol:Airlines",
								"label": "status",
								"offset": 0,
								"slot": "1",
								"type": "t_uint256"
							},
							{
								"astId": 9,
								"contract": "contracts/ch02/Airlines.sol:Airlines",
								"label": "hashOfDetails",
								"offset": 0,
								"slot": "2",
								"type": "t_uint256"
							}
						],
						"numberOfBytes": "96"
					},
					"t_uint256": {
						"encoding": "inplace",
						"label": "uint256",
						"numberOfBytes": "32"
					}
				}
			},
			"userdoc": {
				"kind": "user",
				"methods": {},
				"version": 1
			}
		}
	}
}